S0220000436F6D6D2053797374656D732046696E616C2050726F6A6563742E737265635D
S11300000C940B030C9428030C9428030C942803DD
S11300100C940D090C9436090C945F090C9488090E
S11300200C9428030C94EE070C9417080C944008C5
S11300300C94BB080C9469080C9492080C94E40882
S11300400C9473070C949C070C94C5070C94280318
S11300500C9428030C9428030C9428030C94280370
S11300600C9428030C9428030C9428030C94280360
S11300700C9428030C9428030C9428030763423639
S1130080B79BD8A71A39685618AEBAAB558C1D3C25
S1130090B7CC5763BD6DEDFD753EF6177231BF00E9
S11300A00000803F08000000BE922449123EABAA23
S11300B0AA2ABECDCCCC4C3E00000080BEABAAAA7E
S11300C0AA3E00000000BF000000803F00000000C6
S11300D000084178D3BB4387D1133D190E3CC3BDFF
S11300E04282AD2B3E68EC8276BED98FE1A93E4CAC
S11300F080EFFFBE01C4FF7F3F00000000006E617F
S11301006E00696E660000407A10F35A00A0724EC9
S113011018090010A5D4E80000E87648170000E4A8
S11301200B54020000CA9A3B000000E1F5050000F0
S113013080969800000040420F000000A086010055
S11301400000102700000000E80300000000640025
S1130150000000000A000000000001000000000090
S11301602C76D888DC674F0823DFC1DFAE59E1B1B4
S1130170B796E5E3E453C63AE651997696E8E6C2C3
S11301808426EB898C9B62ED407C6FFCEFBC9C9FCA
S113019040F2BAA56FA5F490055A2AF75C936B6CEC
S11301A0F9676DC11BFCE0E40D47FEF520E6B500E0
S11301B0D0ED902E0300943577050080841E08004E
S11301C000204E0A000000C80C333333330F986EFE
S11301D012831141EF8D2114893BE65516CFFEE6BB
S11301E0DB18D1844B381BF77C1D901DA4BBE42481
S11301F0203284725E228100C9F124ECA1E53D27FE
S113020016050100000000000000FA000000E000F4
S1130210E00028FE28FE282454FE5448C4C81026B2
S1130220466C92AA44A000A0C0000000384482009A
S1130230008244380028107C102810107C10100014
S11302400A0C00001010101010000606000004082C
S11302501020407C8A92A27C0042FE020042868AE0
S113026092628482A2D28C182848FE08E4A2A2A238
S11302709C3C5292920C808E90A0C06C9292926C94
S11302806092929478006C6C0000006A6C0000101C
S113029028448200282828282800824428104080E6
S11302A08A90604C929E827C7E8888887EFE9292A0
S11302B0926C7C82828244FE82824438FE929292C4
S11302C082FE909090807C8292925EFE101010FECE
S11302D00082FE8200040282FC80FE10284482FE1A
S11302E002020202FE403040FEFE201008FE7C8224
S11302F082827CFE909090607C828A847AFE9098C0
S11303009462629292928C8080FE8080FC0202024F
S1130310FCF8040204F8FC021C02FCC6281028C6DF
S1130320E0100E10E0868A92A2C200FE8282004093
S113033020100804008282FE002040804020020237
S11303400202020080402000042A2A2A1EFE1222F1
S1130350221C1C222222041C222212FE1C2A2A2ACB
S113036018107E908040304A4A4A7CFE1020201E9D
S11303700022BE0200040222BC00FE081422000077
S113038082FE02003E2018201E3E1020201E1C2249
S113039022221C3E28282810102828183E3E10200F
S11303A02010122A2A2A0420FC2202043C020204FD
S11303B03E38040204383C020C023C221408142285
S11303C0300A0A0A3C22262A322200106C820000DB
S11303D000FE000000826C100008101008100000DD
S11303E00000007F8181817F7F8383837F7F878774
S11303F0877F7F8F8F8F7F7F9F9F9F7F7FBFBFBFB1
S11304007F7FFFFFFF7F2040FF40206215171565A7
S113041000FBFB00000000000000C0FF0300E0FF41
S11304200700F0FF0F00F8FF1F0078001E0078009F
S11304301E0078001E0078001E0078001E00780060
S11304401E0078001E0078001E0078001E000000C8
S113045000000000000080FF0300E0FF0700F0FF41
S11304600F00F8FF1F00F83C1F00783C1E00783C8A
S11304701E00783C1E00783C1E00783C1E00783C30
S11304801E00783C1E00783C1E00783C1E00783C20
S11304901E000000000000000000E0FF0300F0FF69
S11304A00700F8FF0F00F8FF1F00783C1E00783C9F
S11304B01E00783C1E00783C1E00783C1E00783CF0
S11304C01E00783C1E00783C1E00783C1E00783CE0
S11304D01E000000000000000000F8FF0300F8FF09
S11304E00F00F8FF1F00F8FF1F0000001E000000AF
S11304F01E0000801F0000F01F0000FF0F00E0FF3F
S11305000700F0FF0000F80F0000F800000078007A
S1130510000078000000F8FF1F00F8FF1F00F0FF44
S11305201F00E0FF1F000000000000000000F8FFB3
S11305301F00F8FF1F00F8FF1F00F8FF1F007800DE
S11305401E00783C1E00783C1E00783C1E00783C5F
S11305501E00783C1E00783C1E00F87E1F00F8FF49
S11305601F00F0FF0F00E0E70300000000000000A0
S11305703800EEFF6C002A8045003A0047FC03FF78
S11305806CFC83FF3900DEFF0B7CD0810BFCD08137
S11305900BC0D0810BFCD0810B7CDEFF0B0082FFF3
S11305A0397002FF6CF83A0047DC2A8045CCEEFF34
S11305B06CCC000038000000000C00001E0C000091
S11305C01E0000001E0000001E0000001E00F8FFB8
S11305D01F00F8FF1F00F8FF1F00F8FF1F000000B6
S11305E01E0000001E0000001E0000001E0000008F
S11305F05E000000400000007C000000400000009D
S1130600400000007C0000003000000010000000EA
S1130610300000007C0011241FBECFEFD8E0DEBF05
S1130620CDBF11E0A0E0B1E0E0EEF9E302C0059037
S11306300D92A835B107D9F722E0A8E5B1E001C0D1
S11306401D92A036B207E1F70E949F030C94EE1CA2
S11306500C9400008FE00E941106882311F082E0C0
S113066008950E94940381E008958FE00E941E067D
S1130670882319F420E030E013C080917A0080646C
S113068080937A0080917A0086FDFCCF30917800C7
S113069020917900922F80E0232F30E0282B392BF2
S11306A0C9010895ECE7F0E090818295880F880FE6
S11306B0807C9F73982B90830895582F809100011C
S11306C08830D8F440917E0021E030E0B90102C0C6
S11306D0660F771F8A95E2F7CB0180958423809378
S11306E07E0080917E00052E02C0220F331F0A94E3
S11306F0E2F7822B80937E000DC020917E0081E082
S113070090E0052E02C0880F991F0A94E2F7282B67
S113071020937E005093000180917C005F71807E65
S1130720852B80937C0008958FE180937C00EAE719
S1130730F0E087E0808380818068808308950E9450
S113074071070E9463070E940A1280E090E00895F6
S11307500F931F9385E00E941E068823C1F080E456
S113076060E00E94BC0400E0802F60E00E9450041E
S113077010E080E061E00E94BC041F5F1038C9F7FC
S11307800F5F043089F783E060E00E94AA041F91A0
S11307900F9108950F931F9385E00E9411068823FB
S11307A011F082E07AC00E94D904182F0E942A0610
S11307B01150123008F06DC08150823008F069C0C9
S11307C00E94D7048EEA60E00E94BC0482EA60E0E2
S11307D00E94BC0480EA60E00E94BC0400E513ECC3
S11307E0C8010197F1F780EC60E00E94BC048FE23D
S11307F060E00E94BC0481E860E00E94BC0486E1E1
S113080060E00E94BC0482E260E00E94BC04C80173
S11308100197F1F78FEA60E00E94BC0486EA60E089
S11308200E94BC0485EA60E00E94BC0480E090E081
S113083028E833E1F9013197F1F7019643E0883E66
S11308409407C1F783EB60E00E94BC0480E460E09D
S11308500E94BC0483E060E00E94500483E060E0F6
S11308600E94AA041092F8011092FA011092F90160
S113087081E091E090935D0280935C0288E10E94A4
S113088089040E94A80384EA60E00E94BC0481E019
S113089004C085E00E94010687E01F910F9108952E
S11308A0FF920F931F93082FF62E85E00E941E06D9
S11308B08823A1F01F2D1F770370802F806B60E0C9
S11308C00E94BC0412951F70812F806160E00E9419
S11308D0BC048F2D8F7060E00E94BC041F910F91A7
S11308E0FF9008950F931F93082F162F85E00E9401
S11308F01E06882359F0812F153108F084E166E043
S1130900869FB0011124802F0E94AA041F910F9189
S113091008951F93182F85E00E941E068823C1F0B6
S113092087E00E941B0582E06AE00E946C0582E079
S113093061EB0E946C05612F113208F060E282E0E5
S11309400E946C0589EE8A95F1F787E00E941B05E9
S11309501F9108950F931F93082F162F85E00E946F
S11309601E06882331F003701F771093F60100935D
S1130970F7011F910F9108950F931F93082F162FBE
S113098085E00E941E06882379F0112319F01130A6
S113099021F402C02B9801C02B9A86E08A95F1F7C6
S11309A080E0602F0E946C051F910F910895239A97
S11309B0089582E00E941106882311F082E00895D0
S11309C00E947B0580E065EE7AE00E94120581E0DA
S11309D06DED7AE00E94120582E065ED7AE00E94F6
S11309E0120586E06DEE7AE00E94120583E06DEC5C
S11309F07AE00E94120584E06DEC7AE00E94120510
S1130A0085E06DEC7AE00E94120587E06DEC7AE0F7
S1130A100E9412058FEF8093FB0187E00E941B0563
S1130A2081E00895E82FF0E0EE0FFF1FE856FE4F37
S1130A307183608308951F93182F82E00E941E061D
S1130A40882309F447C0912F97708091FB01981770
S1130A5009F440C09093FB0185B1887F892B85B947
S1130A60933011F1943028F4913051F0923090F495
S1130A700CC0953019F19530E0F0963021F50FC097
S1130A80E0919A01F0919B0122C0E0919801F091CC
S1130A9099011DC0E0919C01F0919D0118C0E09165
S1130AA0A401F091A50113C0E0919E01F0919F0172
S1130AB00EC0E091A001F091A10109C0E091A20152
S1130AC0F091A30104C0E091A601F091A701309731
S1130AD009F009951F9108951F93162F0E941B0575
S1130AE082E00E941E06882321F01EBD0DB407FE7D
S1130AF0FDCF1F910895259A2698279A209A219A26
S1130B00229A089587E00E941106882311F082E05A
S1130B1008950E94F70581E0809332021092FC014F
S1130B201092FD011092FF011092FE011092010239
S1130B301092000210920302109202021092050217
S1130B4010920402109207021092060210920902F7
S1130B501092080210920B0210920A0210920D02D7
S1130B6010920C0210920F0210920E0210921102B7
S1130B701092100210921302109212021092150297
S1130B801092140210921A0210921B0210921C026C
S1130B9010921D0210921F02109220021092210244
S1130BA01092220210922302109224021092250223
S1130BB01092270210922602109229021092280203
S1130BC010922B0210922A0210922D0210922C02E3
S1130BD01092170210921602109219021092180223
S1130BE010923102109230021092320208953A9A11
S1130BF03B9A3C9A3D9A3E9A3F9A88B1837088B951
S1130C000895853160F4E82FF0E0EF51FE4F8081C4
S1130C10882329F0808181508083808108958FEF1B
S1130C200895853110F080E00895E82FF0E0EF5149
S1130C30FE4F80818F5F808381500895853110F04D
S1130C4080E00895E82FF0E0EF51FE4F808181119C
S1130C5081E00895DF93CF9300D00F92CDB7DEB734
S1130C6081E00E941106882311F082E011C00E94E5
S1130C70D9048150823040F40E944E06CE01019680
S1130C800E947C0C81E004C081E00E94010687E0A0
S1130C900F900F900F90CF91DF91089510924A0218
S1130CA01092490210924C0210924B0210924E0282
S1130CB010924D021092500210924F021092520262
S1130CC01092510280E991E09093360280933502AC
S1130CD0909338028093370290933A0280933902BA
S1130CE090933C0280933B0290933E0280933D029A
S1130CF084E398E09093400280933F0290934202F1
S1130D00809341029093440280934302909346025D
S1130D1080934502909348028093470208950F936D
S1130D201F93DF93CF93CDB7DEB729970FB6F8940F
S1130D30DEBF0FBECDBF8C0188E00E941E06882353
S1130D4011F491E00DC0CE01019661E040E09801FC
S1130D500E94BC06982F882319F48F818823E9F315
S1130D60892F29960FB6F894DEBF0FBECDBFCF9161
S1130D70DF911F910F910895EF92FF920F931F93AC
S1130D80CF93DF93EC01F62EE42E890188E00E94D4
S1130D901E06882311F481E026C084E090E00E94BE
S1130DA02F1AFC01009711F482E01DC0F982F0FCB7
S1130DB01E8281E0E81619F489818460898389811F
S1130DC0886089831B830A831D830C83D183C0833A
S1130DD01382128281E08093B801CF010E94FA0647
S1130DE01092B80180E0DF91CF911F910F91FF9095
S1130DF0EF900895CF92DF92EF92FF920F931F939B
S1130E00CF93DF93EC0180915302882339F4D0937C
S1130E105502C09354020E94D50C47C0C09054029E
S1130E20D090550200E010E0EE24FF2437C0A881E2
S1130E30B981FD0164817581F60140815181FA0116
S1130E40848195819B01281B390B37FF0FC0861BBA
S1130E50970B95838483DB82CA82012B29F4D09378
S1130E605502C093540221C0F7010CC0F6018281DF
S1130E7093812115310549F4FD01158214829B8368
S1130E808A83F601D383C28310C0FD013583248392
S1130E900097B9F30F5F1F4F76016C0180915302E5
S1130EA090E00817190718F2ECCF809153028F5F76
S1130EB080935302DF91CF911F910F91FF90EF9098
S1130EC0DF90CF9008950E94650C0E946F0A0E94E3
S1130ED0B1090E94B90C0E94D9040E942A06789490
S1130EE00895000008951F920F920FB60F921124D7
S1130EF02F933F934F935F936F937F938F939F931E
S1130F00AF93BF93EF93FF93E0917801F091790150
S1130F10309709F00995FF91EF91BF91AF919F919F
S1130F208F917F916F915F914F913F912F910F908E
S1130F300FBE0F901F9018951F920F920FB60F922D
S1130F4011242F933F934F935F936F937F938F93CA
S1130F509F93AF93BF93EF93FF93E0917A01F09146
S1130F607B01309709F00995FF91EF91BF91AF9103
S1130F709F918F917F916F915F914F913F912F91AD
S1130F800F900FBE0F901F9018951F920F920FB6DF
S1130F900F9211242F933F934F935F936F937F93FB
S1130FA08F939F93AF93BF93EF93FF93E0917C0153
S1130FB0F0917D01309709F00995FF91EF91BF9170
S1130FC0AF919F918F917F916F915F914F913F91DD
S1130FD02F910F900FBE0F901F9018951F920F9294
S1130FE00FB60F9211242F933F934F935F936F93F8
S1130FF07F938F939F93AF93BF93EF93FF93E0916E
S11310006A01F0916B01309709F00995FF91EF9116
S1131010BF91AF919F918F917F916F915F914F910C
S11310203F912F910F900FBE0F901F9018951F9214
S11310300F920FB60F9211242F933F934F935F9308
S11310406F937F938F939F93AF93BF93EF93FF938C
S1131050E0916C01F0916D01309709F00995FF91D1
S1131060EF91BF91AF919F918F917F916F915F911C
S11310704F913F912F910F900FBE0F901F90189595
S11310801F920F920FB60F9211242F933F934F93F9
S11310905F936F937F938F939F93AF93BF93EF93DC
S11310A0FF93E0916E01F0916F01309709F009957B
S11310B0FF91EF91BF91AF919F918F917F916F912C
S11310C05F914F913F912F910F900FBE0F901F9002
S11310D018951F920F920FB60F9211242F933F93DE
S11310E04F935F936F937F938F939F93AF93BF932C
S11310F0EF93FF93E0917201F0917301309709F03F
S11311000995FF91EF91BF91AF919F918F917F913D
S11311106F915F914F913F912F910F900FBE0F9060
S11311201F9018951F920F920FB60F9211242F93B0
S11311303F934F935F936F937F938F939F93AF935B
S1131140BF93EF93FF93E0917401F0917501309791
S113115009F00995FF91EF91BF91AF919F918F9104
S11311607F916F915F914F913F912F910F900FBE9F
S11311700F901F9018951F920F920FB60F92112483
S11311802F933F934F935F936F937F938F939F938B
S1131190AF93BF93EF93FF93E0917001F0917101CE
S11311A0309709F00995FF91EF91BF91AF919F910D
S11311B08F917F916F915F914F913F912F910F90FC
S11311C00FBE0F901F9018951F920F920FB60F929B
S11311D011242F933F934F935F936F937F938F9338
S11311E09F93AF93BF93EF93FF93E0917601F091B8
S11311F07701309709F00995FF91EF91BF91AF9175
S11312009F918F917F916F915F914F913F912F911A
S11312100F900FBE0F901F9018951F920F920FB64C
S11312200F9211242F933F934F935F936F937F9368
S11312308F939F93AF93BF93EF93FF93E0916001DC
S1131240F0916101309709F00995FF91EF91BF91F9
S1131250AF919F918F917F916F915F914F913F914A
S11312602F910F900FBE0F901F9018951F920F9201
S11312700FB60F9211242F933F934F935F936F9365
S11312807F938F939F93AF93BF93EF93FF93E091DB
S11312906201F0916301309709F00995FF91EF9194
S11312A0BF91AF919F918F917F916F915F914F917A
S11312B03F912F910F900FBE0F901F9018951F9282
S11312C00F920FB60F9211242F933F934F935F9376
S11312D06F937F938F939F93AF93BF93EF93FF93FA
S11312E0E0916401F0916501309709F00995FF914F
S11312F0EF91BF91AF919F918F917F916F915F918A
S11313004F913F912F910F900FBE0F901F90189502
S11313101F920F920FB60F9211242F933F934F9366
S11313205F936F937F938F939F93AF93BF93EF9349
S1131330FF93E0916601F0916701309709F00995F8
S1131340FF91EF91BF91AF919F918F917F916F9199
S11313505F914F913F912F910F900FBE0F901F906F
S1131360189580E10E941106882311F082E0089507
S1131370E8E5F1E01192119281E0E839F807D1F73C
S113138081E00895FF920F931F93CF93DF93F82E7C
S11313908AE0F816B1F08F1548F0E8E0FE16B9F1CE
S11313A0EF1538F1F7E0FF1651F43BC08DE0F81665
S11313B059F0EBE1FE1689F0FCE0FF1641F001E084
S11313C041C01092F60103C01092F6013AC0809118
S11313D0F70181508093F70134C00E94A80314C020
S11313E080E061E00E94BC048091F6018F5F8093ED
S11313F0F6018091F60187FFF3CF1092F6018091F8
S1131400F70181508093F70100E011E01CC0809146
S1131410F6018823B1F08091F60186508093F6019D
S113142010C081E00E94B70B64EF71E080E090E0AF
S11314304DE750E024E630E00E94C30B81E00E94B7
S11314401E0B00E010E08091F7016091F6010E940C
S11314505004002351F185E0F89EC0011124EC01F1
S1131460CD59DE4F8C0108591E4FFE01849161E075
S11314700E94BC042196C017D107B9F780E061E04F
S11314800E94BC048091F6018A5F8093F6018091EA
S1131490F60190E08C3791053CF01092F6018091B2
S11314A0F70181508093F70111E08091F701837077
S11314B08093F701113059F48091F801813039F4A7
S11314C0E091F901F091FA01309709F0099580E073
S11314D090E0DF91CF911F910F91FF900895F894C0
S11314E00E94CA0A81E00E94770A81E0089581304F
S11314F049F0F894813020F18230B1F0833009F062
S113150045C017C02C9A80E8809361001092610056
S113151080E090E00000019688329105D9F710929E
S1131520680010926B00089580E88093610083E066
S113153004C080E88093610088E08093610028C043
S113154080E090E0000001962DE680369207D1F706
S11315502C9880E090E0000001962DE680369207FA
S1131560D1F710927A008FEF809364008091680025
S113157081608093680080916B00846080936B002D
S1131580789483B7816083BF88950895823008F08A
S113159078940895249A2C9A089583E58CBD81E06B
S11315A08DBD8DE08A95F1F7089583E58CBD1DBC52
S11315B084EF91E00197F1F708958FE78CBD1DBC8E
S11315C084EF91E00197F1F7089583E58CBD81E004
S11315D08DBD8DE08A95F1F7089583E58CBD81E09A
S11315E08DBD84EF91E00197F1F708958AE00E94A0
S11315F00106882329F481E00E94190C1092A901A4
S1131600089589E00E9401068823B9F48091A80115
S1131610882311F00E945F0C82E00E94190C8091D3
S1131620B6019091B701009731F00E94C71A109249
S1131630B7011092B6011092A8010895813029F0E3
S1131640823029F40E94010B08950E94F60A08953D
S11316500F931F93CF93DF9380E291E00E942F1AA0
S11316609C019093B7018093B601892B11F480E01B
S113167039C08901C0E0D0E0BE0180E090E00E9462
S1131680DB1620E030E040EA51E40E94331627EFF5
S113169035E740E05FE30E94A6179B01AC0160E0E0
S11316A070E080E291E40E9413189B01AC01CA012E
S11316B0B9012DEC3CEC42E851E40E94A6170E94CB
S11316C069172AE030E040E050E00E949819F801E0
S11316D061937193819391938F012196C834D105BD
S11316E059F681E0DF91CF911F910F9108958AE01F
S11316F00E941106882311F082E008951092B3012C
S11317001092B20181E00E94350C81E08093A9011E
S113171008951F9389E00E941106882311F082E046
S113172024C08BE00E941E068823D9F40E94280B53
S1131730182F813011F086E018C01092AA0110927F
S1131740AB011092AC011092AD018DE06DE17DE032
S11317500E94E80C82E00E94350C1093A80181E0FD
S113176004C089E00E94010687E01F91089581303A
S113177021F0823029F084E008950E94770B0895C7
S11317800E94890B08956F927F928F929F92AF92DD
S1131790BF92CF92DF92EF92FF920F931F93CF935A
S11317A0DF933B014C015A01E9018AE00E941E06C5
S11317B0882381F1209741F19501442737FD409515
S11317C0542FBE01C536D10510F064E670E080E008
S11317D090E00E94981924E630E040E050E00E9436
S11317E0BC1979018A01C401B3010E94200DC7010B
S11317F00E948F0660E070E080E090E00E94200D7F
S1131800C5018E199F0904C0A114B10419F0C501C2
S11318100E948F06DF91CF911F910F91FF90EF905F
S1131820DF90CF90BF90AF909F908F907F906F90FC
S11318300895823029F4809181008E7F8093810005
S11318408091A801813031F48091A901813011F493
S1131850000008958091A801813021F08091A901B0
S1131860813011F45F9857980895982F8091A801BA
S1131870882331F48091A901882311F4579A5F9841
S11318808091A8018823D1F49230C1F41092800091
S11318901092810080918100886080938100809102
S11318A081008160809381001092850010928400F1
S11318B081E08093890080E9809388000895EFE6B1
S11318C0F0E080818D7F80830895CF93DF93C0E023
S11318D0D0E08C2F60E00E94740C2196C531D105B4
S11318E0C1F7DF91CF910895853128F4E82FF0E016
S11318F0EF51FE4F608308951F93CF93DF93EC0164
S1131900009799F181E00E941E06882351F187E037
S11319100E941B0518EC812F8A95F1F782E06AE09A
S11319200E946C0582E064EB0E946C05812F8A950D
S1131930F1F782E060E00E940D0D8883812F8A9583
S1131940F1F782E060E00E940D0D89831A95F1F7AA
S113195082E060E00E940D0D8A8387E00E941B05EF
S113196004C0188219828DE28A83DF91CF911F917E
S1131970089588E00E941106882311F082E00895FA
S11319801092530210925502109254021092B80110
S11319901092B90180E165E87DE00E94FC0C0E9490
S11319A0D90C0E94E20C81E0089581E08093B90192
S11319B0089584B5826084BD85B5846085BD8EE458
S11319C087BD0895EEE6F0E080818260808308950B
S11319D0E82F803268F48051833050F0F0E0EE0F4D
S11319E0FF1FE85AFE4F208131817183608302C05A
S11319F020E030E0C9010895803218F020E030E0A2
S1131A000AC0E82FF0E0EE0FFF1FE85AFE4F2081D6
S1131A10318171836083C90108951F93162F0E9439
S1131A201B0582E00E941E06882329F01EBD0DB40A
S1131A3007FEFDCF8EB51F9108950E94440D0895B1
S1131A40EF92FF920F931F937B018C018AE00E9417
S1131A501E068823A1F08091A901882381F0D80172
S1131A60C701880F991FAA1FBB1F9093B5018093CC
S1131A70B401E114F1040105110509F45F981F9103
S1131A800F91FF90EF9008958091AA019091AB017E
S1131A90A091AC01B091AD012091AE013091AF01A4
S1131AA04091B0015091B101280F391F4A1F5B1FAB
S1131AB02093AA013093AB014093AC015093AD0144
S1131AC08091AA019091AB01A091AC01B091AD01BC
S1131AD08851964FA040B040BCF08BB180588BB970
S1131AE08091AA019091AB01A091AC01B091AD019C
S1131AF08851964FA040B0408093AA019093AB01C7
S1131B00A093AC01B093AD0108950E948C0D0E9486
S1131B10CC0D0E94A50D089588E00E941E0688231E
S1131B2011F484E008958091B901882311F483E0CD
S1131B3008958091B801882311F082E008950E94ED
S1131B406B108130E1F380E008958091A901813028
S1131B5011F58091B2019091B3012091B4013091BB
S1131B60B501280F391F3093B3012093B20180913E
S1131B70B2019091B301885E93406CF08BB18058B0
S1131B808BB98091B2019091B301885E9340909398
S1131B90B3018093B201089587E00E941E06882352
S1131BA009F4AAC08091060290910702892B09F1D9
S1131BB080912A0290912B02209106023091070213
S1131BC0820F931F90932B0280932A0280912A0202
S1131BD090912B02885E9340A4F080912A02909108
S1131BE02B02885E934090932B0280932A0241E05B
S1131BF009C08091FE019091FF01909303028093AC
S1131C00020240E08091080290910902892B09F1B7
S1131C1080912C0290912D022091080230910902AA
S1131C20820F931F90932D0280932C0280912C029B
S1131C3090912D02885E9340A4F080912C029091A3
S1131C402D02885E934090932D0280932C0261E0D4
S1131C5009C0809100029091010290930502809343
S1131C60040260E0842F0E947D0E809126029091F0
S1131C7027022091020230910302280F391F30936A
S1131C802702209326028091260290912702885EE3
S1131C90934014F440E00BC08091260290912702F7
S1131CA0885E9340909327028093260241E08091BE
S1131CB02802909129022091040230910502280FF4
S1131CC0391F309329022093280280912802909191
S1131CD02902885E934014F460E00BC080912802CE
S1131CE090912902885E9340909329028093280260
S1131CF061E0842F0E94C20E08958823F1F02091A0
S1131D00FE013091FF018091020290910302281B91
S1131D10390B1216130634F48091020290910302D7
S1131D20019607C0232B49F080910202909103028F
S1131D3001979093030280930202662311F120918C
S1131D400002309101028091040290910502281B47
S1131D50390B1216130654F4809104029091050273
S1131D60019690930502809304020895232B49F071
S1131D70809104029091050201979093050280934B
S1131D80040208950F931F93182F062F8091320297
S1131D90882309F0E7C080911A02882309F05AC009
S1131DA08091020290910302892BE9F48091BA0197
S1131DB0837E8093BA011092230280912E0288239D
S1131DC009F45DC060911C0280E00E944610E0911D
S1131DD03002F0913102309709F451C081E08083E0
S1131DE010922E024CC08091FC01813041F480910C
S1131DF00E0290910F02019711F411E002C0112319
S1131E00F1F1E0912102F0E0E15FFE4F9091BA011F
S1131E10937E8081892B8093BA0180911F0288234D
S1131E2021F4809121028F5F03C0809121028150AF
S1131E30809321028091210283708093210281E0AA
S1131E40809323028091FC018130C9F480E00E94D8
S1131E50C50F15C09091BA01937E9093BA01E09199
S1131E602102F0E0E15FFE4F8081892B8093BA016B
S1131E7082E0809323021092030210920202809166
S1131E801B02882309F059C0809104029091050235
S1131E90892BE9F48091BA018F718093BA01109271
S1131EA0240280912F02882309F45CC060911D02F2
S1131EB081E00E944610E0913002F09131023097A7
S1131EC009F450C081E0818310922F024BC08091AD
S1131ED0FD01813041F4809110029091110201972B
S1131EE011F401E002C00023E9F1E0912202F0E0E4
S1131EF0ED5EFE4F9091BA019F718081892B809392
S1131F00BA0180912002882321F4809122028F5FFC
S1131F1003C0809122028150809322028091220288
S1131F2083708093220281E0809324028091FD01DA
S1131F308130C1F40E94C50F15C09091BA019F7100
S1131F409093BA01E0912202F0E0ED5EFE4F8081B1
S1131F50892B8093BA0182E08093240210920502B7
S1131F601092040280912502882331F48AEB91E0D7
S1131F70612F402F0E94D91088B183709091BA01CB
S1131F80892B88B91F910F910895882321F08130FE
S1131F9009F04EC027C080910E0290910F02892B48
S1131FA049F080910E0290910F02019790930F02D5
S1131FB080930E0280912E028823D1F520910E0287
S1131FC030910F0280911202909113022817390761
S1131FD079F580E060E070E00E94191081E0809360
S1131FE02E0208958091100290911102892B49F0DC
S1131FF080911002909111020197909311028093A5
S1132000100280912F02882399F4209110023091BC
S1132010110280911402909115022817390741F496
S113202081E060E070E00E94191081E080932F024B
S11320300895482F81E080933202CB0121E0613979
S1132040720710F080E991E0413061F0413018F0FE
S11320504230C9F40EC0F8949093FF018093FE01BE
S1132060789411C0F89490930102809300027894BC
S11320700AC0F8949093FF018093FE0190930102AB
S11320808093000278941092320208950F931F9364
S1132090182F062F662349F460E070E00E9419109F
S11320A0812F60E070E00E94711181E08093320220
S11320B0113051F0113018F0123041F403C0009384
S11320C01A0204C000931A0200931B0210923202F7
S11320D01F910F910895FF920F931F93CF93DF9356
S11320E080915302882309F459C00091540210913D
S11320F05502F801C081D1818C819D8101979D8316
S11321008C83181619060CF449C0898180FF05C018
S11321108E81882311F481E08E83898181FF03C03D
S1132120EF81F8850995809153028230A8F0F80177
S11321308281938190935502809354021382128278
S1132140E0910000F0910100848195811816190630
S11321503CF0FF24F39405C01092550210925402EF
S1132160FF24809153028150809353028091530243
S1132170882311F40E94D610898182FF08C08A81C5
S11321809B819D838C83C8010E94FA0608C0C80104
S11321900E94C71A89818F7E898301C0FF248F2DF5
S11321A0DF91CF911F910F91FF9008951092B90183
S11321B00895FC0180912302823069F48091BE016C
S11321C091E089278093BE01882309F03EC0808175
S11321D0837E80833AC08091020290910302C39768
S11321E0A4F56623D1F0209102023091030280E627
S11321F090E0BC01269FC001279F900D369F900D53
S11322001124880F892F881F990B909317028093AC
S1132210160281E08093BC0118C08091BC01882320
S1132220A1F08091160290911702019790931702E2
S1132230809316028091160290911702892B29F43B
S11322408081837E80831092BC018091240282303D
S113225069F48091BD0191E089278093BD018823B1
S113226009F03EC080818F718083089580910402BB
S113227090910502C397A4F54423D1F02091040260
S11322803091050280E690E0AC01249FC001259FB7
S1132290900D349F900D1124880F892F881F990B5E
S11322A0909319028093180281E08093BB010895F2
S11322B08091BB018823A1F08091180290911902AA
S11322C001979093190280931802809118029091BB
S11322D01902892B29F480818F7180831092BB01AC
S11322E00895982F81E080933202913071F09130FB
S11322F018F0923071F405C070930F0260930E02CF
S113230008C070930F0260930E02709311026093E1
S1132310100210923202089581E00E94520384E078
S11323200C945D030F931F93CF93DF93C7ECD1E01D
S11323308E0182E390E00E948F060E943503909301
S1132340E0018093DF01BC0180E090E00E94DB1695
S113235020E030E040EA5BE30E94A6176093C301EB
S11323607093C4018093C5019093C60120E030E0CE
S113237040E05FE30E94C61520E030E048EC52E400
S11323800E94A6170E94A5167093C2016093C10112
S1132390F801619371938F01F1E0093D1F0749F63C
S11323A080E090E029913991820F931F21E0C93D8B
S11323B0D207C1F76AE070E00E94A8197093C201C5
S11323C06093C101DF91CF911F910F910895909374
S11323D0CD008093CC0088E18093C9008CE0809389
S11323E0CA000895CF93C82F60E081E00E94720470
S11323F08DE191E09F938F930E947A1C0F900F9030
S11324008091C80085FFFCCF0E94A803C093CE0032
S1132410CF9108950E94CA030E9482050E942A0354
S11324200E948C1181E890E00E94E71108E211E01B
S1132430CAE3D1E00E94921160E083E00E9472043A
S11324408091C2018F938091C1018F931F930F9349
S11324500E947A1C60E082E00E9472048091DE0196
S11324608F938091DD018F93DF93CF930E947A1C29
S11324708091C1010E94F21182E390E00E948F06D4
S11324808DB79EB708960FB6F8949EBF0FBE8DBF4A
S1132490D1CFA0E1B0E0EFE4F2E10C94E9197C01C2
S11324A01B016A01FC0117821682838181FF44C3E8
S11324B09E012F5F3F4F3901F7019381F10193FD95
S11324C0859193FF81911F01882309F431C38532DB
S11324D039F493FD859193FF81911F01853239F47D
S11324E0B70190E00E943E1C56016501E5CF10E063
S11324F0512C912CFFE1F915D8F08B3279F038F496
S1132500803279F08332A1F4F92DF0612EC08D323E
S113251061F0803369F4292D21602DC0392D32609A
S1132520932E892D8460982E2AC0E92DE86015C069
S113253097FC2DC020ED280F2A3088F496FE06C0A3
S11325403AE0139F200D1124122F19C08AE0589EDF
S1132550200D1124522EE92DE0629E2E10C08E32E1
S113256031F496FCE5C2F92DF0649F2E08C08C3638
S113257021F4292D2068922E02C0883641F4F101FD
S113258093FD859193FF81911F018111B3CF9BEB43
S1132590980F933020F4992D9061805E07C09BE9D9
S11325A0980F933008F066C1992D9F7E96FF16E030
S11325B09F73992E853619F49064992E08C0863637
S11325C021F4392F3068932E02C01111115097FE57
S11325D007C01C3350F444244394410E27E00BC03D
S11325E0183038F027E017E005C027E09CE3492EB7
S11325F002C0212F412C560184E0A80EB11CF60123
S11326006081718182819381042DA3010E94501BFA
S11326106C01F981FC87F0FF02C0F3FF06C091FC56
S113262006C092FE06C000E205C00DE203C00BE244
S113263001C000E08C858C7019F001115AC29BC254
S113264097FE10C04C0CFC85F4FF04C08A818133D2
S113265009F44A94141474F528E0241578F588E0F4
S1132660482E2CC096FC2AC0812F90E08C159D0525
S11326709CF03CEFC3163FEFD30674F0892D8068BD
S1132680982E0AC0E2E0F0E0EC0FFD1FE10FF11D0F
S11326908081803319F411501111F4CF97FE0EC0CC
S11326A044244394410E812F90E0C816D9062CF49B
S11326B01C1904C04424439401C010E097FE06C0D2
S11326C01C141D0434F4C601019605C085E090E095
S11326D002C081E090E001110196112331F0212F15
S11326E030E02F5F3F4F820F931F252D30E082177C
S11326F0930714F4581A01C0512C892D897049F498
S1132700552039F0B70180E290E00E943E1C5A94B3
S1132710F7CF002329F0B701802F90E00E943E1CE0
S113272093FC09C0552039F0B70180E390E00E9482
S11327303E1C5A94F7CF97FE4CC04601D7FE02C008
S1132740812C912CC60188199909F301E80FF91F0E
S1132750FE87ED87960124193109388B2F87012FC5
S113276010E01195019511093FEF8316930629F4A2
S1132770B7018EE290E00E943E1CC814D9044CF0CC
S11327808F8598898815990524F4ED85FE858181C6
S113279001C080E3F1E08F1A91082D853E852F5FFB
S11327A03F4F3E872D87801691062CF0B70190E0AD
S11327B00E943E1CD9CFC814D90441F49A8196339F
S11327C020F4953319F43C8534FF81E3B70190E09C
S11327D04EC08A81813319F09C859F7E9C87B70106
S11327E090E00E943E1C111105C094FC18C085E6BF
S11327F090E017C0B7018EE290E00E943E1C1E5F7D
S113280082E001E0080FF301E80FF11D8081B701B8
S113281090E00E943E1C802F0113F3CFE6CF85E4A5
S113282090E0B7010E943E1CD7FC06C0C114D1043D
S113283041F4EC85E4FF05C0D194C194D1088DE244
S113284001C08BE2B70190E00E943E1C80E32AE0C5
S1132850C216D1042CF08F5FFAE0CF1AD108F7CF5B
S1132860B70190E00E943E1CB701C601C0960E94C9
S11328703E1C54C1833631F0833779F0833509F037
S113288056C020C0560132E0A30EB11CF60180816F
S1132890898301E010E0630112C05601F2E0AF0E3B
S11328A0B11CF601C080D18096FE03C0612F70E098
S11328B002C06FEF7FEFC6010E94331C8C01F92D1B
S11328C0FF7714C0560122E0A20EB11CF601C080AD
S11328D0D18096FE03C0612F70E002C06FEF7FEFDE
S11328E0C6010E94281C8C01F92DF0689F2EF3FD6F
S11328F01AC0852D90E008171907A8F4B70180E2E3
S113290090E00E943E1C5A94F4CFF60197FC859106
S113291097FE81916F01B70190E00E943E1C511017
S11329205A94015011090115110579F7F7C084363D
S113293011F0893661F5560197FE09C024E0A20E14
S1132940B11CF60160817181828193810AC0F2E039
S1132950AF0EB11CF60160817181072E000C880B4B
S1132960990BF92DFF769F2E97FF09C090958095BE
S1132970709561957F4F8F4F9F4FF0689F2E2AE08F
S113298030E0A3010E94901CC82EC6183FC0092D38
S1132990853721F40F7E2AE030E01DC0097F8F3691
S11329A091F018F4883559F0C3C0803719F088378E
S11329B011F0BEC0006104FF09C0046007C094FEAA
S11329C008C0066006C028E030E005C020E130E021
S11329D002C020E132E0560107FF09C084E0A80EDE
S11329E0B11CF601608171818281938108C0F2E09B
S11329F0AF0EB11CF6016081718180E090E0A3010B
S1132A000E94901CC82EC6180F77902E96FE0BC0FD
S1132A10092D0E7FC11650F494FE0AC092FC08C022
S1132A20092D0E7E05C0DC2C092D03C0DC2C01C051
S1132A30D12E04FF0DC0FE01EC0DF11D8081803309
S1132A4011F4097E09C002FF06C0D394D39404C0D4
S1132A50802F867809F0D39403FD11C000FF06C0CF
S1132A601C2DD51480F4150D1D190DC0D51458F462
S1132A70B70180E290E00E943E1CD394F7CFD514B6
S1132A8010F45D1801C0512C04FF10C0B70180E39D
S1132A9090E00E943E1C02FF17C001FD03C088E7BE
S1132AA090E002C088E590E0B7010CC0802F8678E2
S1132AB059F001FF02C08BE201C080E207FD8DE204
S1132AC0B70190E00E943E1CC11638F4B70180E3C0
S1132AD090E00E943E1C1150F7CFCA94F301EC0D14
S1132AE0F11D8081B70190E00E943E1CC110F5CF1A
S1132AF015C0F4E0F51560F584E0581A93FE1FC084
S1132B00011127C02C8523FF2AC00EEF10E0392DB8
S1132B103071932EF8018491811124C0552009F459
S1132B20E4CCB70180E290E00E943E1C5A94F6CFB8
S1132B30F7018681978126C08FEF9FEF23C0B701ED
S1132B4080E290E00E943E1C5A945110F8CFD8CFF6
S1132B50512CB701802F90E00E943E1CD3CF02E09D
S1132B6011E0D5CF91108052B70190E00E943E1C35
S1132B700F5F1F4FCFCF23E0251510F483E0BDCFA7
S1132B80512CC0CF6096E2E10C94051A5058BB2733
S1132B90AA270E94DE150C942F170E94211738F0E3
S1132BA00E94281720F039F49F3F19F426F40C945E
S1132BB01E170EF4E095E7FB0C941817E92F0E94FA
S1132BC0401758F3BA17620773078407950720F074
S1132BD079F4A6F50C9462170EF4E0950B2EBA2F37
S1132BE0A02D0B01B90190010C01CA01A00111240F
S1132BF0FF27591B99F0593F50F4503E68F11A16BB
S1132C00F040A22F232F342F4427585FF3CF46954B
S1132C1037952795A795F0405395C9F77EF41F166D
S1132C20BA0B620B730B840BBAF09150A1F0FF0F37
S1132C30BB1F661F771F881FC2F70EC0BA0F621F23
S1132C40731F841F48F4879577956795B795F79513
S1132C509E3F08F0B0CF9395880F08F09927EE0FA8
S1132C609795879508950E9447160C942F170E94F4
S1132C70281758F00E94211740F029F45F3F29F0EB
S1132C800C94181751110C9463170C941E170E947E
S1132C90401768F39923B1F3552391F3951B550B12
S1132CA0BB27AA2762177307840738F09F5F5F4F1B
S1132CB0220F331F441FAA1FA9F335D00E2E3AF05A
S1132CC0E0E832D091505040E695001CCAF72BD072
S1132CD0FE2F29D0660F771F881FBB1F26173707C3
S1132CE04807AB07B0E809F0BB0B802DBF01FF27F5
S1132CF093585F4F3AF09E3F510578F00C941817A3
S1132D000C9463175F3FE4F3983ED4F3869577956C
S1132D106795B795F7959F5FC9F7880F911D9695AD
S1132D20879597F90895E1E0660F771F881FBB1F09
S1132D30621773078407BA0720F0621B730B840BB6
S1132D40BA0BEE1F88F7E09508950E94AC166894BC
S1132D50B1110C94631708950E94481788F09F5787
S1132D6098F0B92F9927B751B0F0E1F0660F771FAB
S1132D70881F991F1AF0BA95C9F714C0B13091F0A1
S1132D800E946217B1E008950C946217672F782FA0
S1132D908827B85F39F0B93FCCF386957795679566
S1132DA0B395D9F73EF490958095709561957F4FD2
S1132DB08F4F9F4F0895E89409C097FB3EF4909578
S1132DC08095709561957F4F8F4F9F4F9923A9F000
S1132DD0F92F96E9BB279395F6958795779567958F
S1132DE0B795F111F8CFFAF4BB0F11F460FF1BC0D3
S1132DF06F5F7F4F8F4F9F4F16C0882311F096E966
S1132E0011C0772321F09EE8872F762F05C0662313
S1132E1071F096E8862F70E060E02AF09A95660FCC
S1132E20771F881FDAF7880F9695879597F9089585
S1132E3097F99F6780E870E060E008959FEF80EC69
S1132E40089500240A94161617061806090608950C
S1132E5000240A9412161306140605060895092E72
S1132E600394000C11F4882352F0BB0F40F4BF2BE1
S1132E7011F460FF04C06F5F7F4F8F4F9F4F089521
S1132E8057FD9058440F551F59F05F3F71F0479517
S1132E90880F97FB991F61F09F3F79F087950895FC
S1132EA0121613061406551FF2CF4695F1DF08C01B
S1132EB0161617061806991FF1CF86957105610538
S1132EC008940895E894BB2766277727CB0197F9E0
S1132ED008950E944817A8F19E57B0F1985160F0E8
S1132EE039F1983070F5092E9927660F771F881FDE
S1132EF0991F0A94D1F71CC0BB27993F4CF4B11118
S1132F00B1E0B62B672F782F8827985FB1F708C0F8
S1132F10869577956795B79508F4B1609395C1F751
S1132F20BB0F30F411F460FF03C06F5F7F4F8F4F0E
S1132F303EF490958095709561957F4F8F4F9F4F8C
S1132F40089568940C9463170C9462170E94B9173F
S1132F500C942F170E94211738F00E94281720F094
S1132F60952311F00C9418170C941E1711240C942B
S1132F7063170E94401770F3959FC1F3950F50E0BB
S1132F80551F629FF001729FBB27F00DB11D639F17
S1132F90AA27F00DB11DAA1F649F6627B00DA11DBD
S1132FA0661F829F2227B00DA11D621F739FB00D63
S1132FB0A11D621F839FA00D611D221F749F3327D3
S1132FC0A00D611D231F849F600D211D822F762F6C
S1132FD06A2F11249F5750409AF0F1F088234AF049
S1132FE0EE0FFF1FBB1F661F771F881F91505040B5
S1132FF0A9F79E3F510580F00C9418170C946317A1
S11330005F3FE4F3983ED4F3869577956795B7953B
S1133010F795E7959F5FC1F7FE2B880F911D969555
S1133020879597F90895FA01EE0FFF1F3096210551
S11330303105A1F16115710561F48038BFE39B0787
S113304049F168949038810561F08038BFEF9B079F
S113305041F099234AF5FF3FE1053105210519F1B6
S1133060E8940894E795D901AA2329F4AB2FBE2F3D
S1133070F85FD0F310C0FF5F70F4A695E0F7F7395E
S113308050F019F0FF3A38F49F779F930DD00F90CA
S113309007FC9058089546F00C941E1760E070E009
S11330A080E89FE308954FE79F775F934F933F93A3
S11330B02F930E940E192F913F914F915F910E947F
S11330C0A6170C946B1829F416F00C9418170C948A
S11330D062170C941E170E944817A8F39638A0F79D
S11330E007F80F92E8942BE33AEA48EB5FE70E9473
S11330F0BC170F920F920F924DB75EB70F920E94BA
S11331005619ECE7F0E00E949D184F915F91EF9102
S1133110FF91E595EE1FFF1F49F0FE57E068442735
S1133120EE0F441FFA95E1F74195550B0E94D01814
S11331300F9007FE0C94C4180895DF93CF931F9348
S11331400F93FF92EF92DF927B018C01689406C08B
S1133150DA2EEF010E94B917FE01E894A59125919A
S1133160359145915591A6F3EF010E94DE15FE01BC
S11331709701A801DA9469F7DF90EF90FF900F911F
S11331801F91CF91DF9108959B01AC0160E070E045
S113319080E89FE30C9433160C9418170C948A1946
S11331A00E944817D8F39923C9F3940F511DA3F330
S11331B09150504094F059F0882332F0660F771FF5
S11331C0881F91505040C1F79E3F51052CF7880F3E
S11331D0911D9695879597F908955F3FACF0983EB9
S11331E09CF0BB27869577956795B79508F4B160F1
S11331F09395C1F7BB0F58F711F460FFE8CF6F5FE9
S11332007F4F8F4F9F4FE3CF0C94631716F00C94AE
S11332108A190C941E1768940C9418170E94481766
S1133220A8F39923C1F3AEF3DF93CF931F930F93C6
S1133230FF92C92FDD2788232AF02197660F771F75
S1133240881FDAF720E030E040E85FEB9FE388393D
S113325020F0803E38F021968F770E94C715E4EA6B
S1133260F0E004C00E94C715E1EDF0E00E949D1853
S11332708B01BE01EC01FB2E6F5771097595771F09
S1133280880B990B0E94DD1628E132E741E35FE3E6
S11332900E94B917AF2D9801AE01FF900F911F91B5
S11332A0CF91DF910E94DE150C942F17FA01DC01F7
S11332B0AA0FBB1F9B01AC01BF5728F42227332759
S11332C04427507820C0B75190F4AB2F0024469582
S11332D037952795011CA395D2F3002071F0220F96
S11332E0331F441FB395DAF30ED00C94C615613026
S11332F07105A0E88A07B94630F49B01AC01662742
S1133300772788279078309621F020833183428371
S1133310538308959F3F31F0915020F4879577951A
S11333206795B795880F911D9695879597F9089598
S1133330DB018F939F930E94DE19BF91AF91A29FEF
S1133340800D911DA39F900DB29F900D112408959F
S1133350AA1BBB1B51E107C0AA1FBB1FA617B707B7
S113336010F0A61BB70B881F991F5A95A9F78095D3
S11333709095BC01CD010895A1E21A2EAA1BBB1B96
S1133380FD010DC0AA1FBB1FEE1FFF1FA217B3072D
S1133390E407F50720F0A21BB30BE40BF50B661F43
S11333A0771F881F991F1A9469F760957095809507
S11333B090959B01AC01BD01CF0108950E94201A94
S11333C0A59F900DB49F900DA49F800D911D112475
S11333D008952F923F924F925F926F927F928F92B5
S11333E09F92AF92BF92CF92DF92EF92FF920F9390
S11333F01F93CF93DF93CDB7DEB7CA1BDB0B0FB69A
S1133400F894DEBF0FBECDBF09942A883988488856
S11334105F846E847D848C849B84AA84B984C884EC
S1133420DF80EE80FD800C811B81AA81B981CE0FE3
S1133430D11D0FB6F894DEBF0FBECDBFED010895C8
S1133440A29FB001B39FC001A39F700D811D1124E1
S1133450911DB29F700D811D1124911D08950F932C
S11334601F93CF93DF938230910510F482E090E0B4
S1133470E0915802F091590220E030E0A0E0B0E081
S1133480309719F1408151810281138148175907FE
S1133490C8F08417950769F4109731F012960C93CD
S11334A0129713961C9327C0009358021093590245
S11334B022C02115310519F04217530718F49A0157
S11334C0BD01EF01DF01F801DBCF21153105F9F072
S11334D0281B390B2430310580F48A819B816115C6
S11334E0710521F0FB019383828304C090935902F8
S11334F080935802FE01329644C0FE01E20FF31F8E
S11335008193919322503109398328833AC02091C1
S1133510560230915702232B41F420911901309126
S11335201A013093570220935602209117013091CB
S113353018012115310541F42DB73EB740911B0107
S113354050911C01241B350BE0915602F091570257
S1133550E217F307A0F42E1B3F0B2817390778F066
S1133560AC014E5F5F4F2417350748F04E0F5F1FC5
S113357050935702409356028193919302C0E0E026
S1133580F0E0CF01DF91CF911F910F910895CF9378
S1133590DF93009709F481C0FC01329713821282F1
S11335A0A0915802B0915902109781F42081318181
S11335B0820F931F20915602309157022817390722
S11335C051F5F0935702E093560267C0ED0120E0F5
S11335D030E0CE17DF0740F44A815B819E0141153C
S11335E05105F1F0EA01F5CFD383C28340815181C3
S11335F0840F951FC817D90759F488819981840FBE
S1133600951F0296918380838A819B819383828311
S11336102115310529F4F0935902E09358023DC075
S1133620E901FB83EA8349915991C40FD51FEC1733
S1133630FD0761F480819181840F951F0296E90151
S113364099838883828193819B838A83E0E0F0E07D
S113365012968D919C911397009719F0FD01DC014E
S1133660F7CF8D919C9111979D012E5F3F4F820F53
S1133670931F20915602309157022817390769F495
S1133680309729F4109259021092580202C0138202
S11336901282B0935702A0935602DF91CF910895FE
S11336A0283008F027E03327DA01990F311D87FD10
S11336B0916000966105710539F432602E5F3D9387
S11336C030E32A95E1F708959F3F30F08038710583
S11336D0610509F03C5F3C5F3D93913008F08068E0
S11336E0911DDF93CF931F930F93FF92EF92192FA6
S11336F0987F9695E92F96959695E90FFF27E05ABE
S1133700FE4F99273327EE24FF24A701E7010590F4
S11337100894079428F4360FE71EF81E491F511D1C
S1133720660F771F881F991F0694A1F705900794C9
S113373028F4E70EF81E491F561FC11D770F881F76
S1133740991F661F0694A1F70590079428F4F80EB4
S1133750491F561FC71FD11D880F991F661F771F4A
S11337600694A1F70590079420F4490F561FC71F2C
S1133770D81F990F661F771F881F0694A9F7849195
S11337801095177041F0D695C79557954795F794BE
S1133790E7941A95C1F7E6E0F1E068941590159165
S11337A035916591959105907FE27395E118F10A41
S11337B0430B560BC90BD009C0F7E10CF11E431F94
S11337C0561FC91FD01D7EF4703311F48A95E6CFBD
S11337D0E894015030F0080F0AF40027021708F4A7
S11337E0202F2395022F7A3328F079E37D932A95AD
S11337F0E9F710C07D932A9589F606949795679505
S1133800379517951794E118F10A430B560BC90B1A
S1133810D00998F023957E9173957A3308F070E37C
S11338207C932013B8F77E9170617D9330F083957B
S113383071E37D9370E32A95E1F71124EF90FF90F3
S11338400F911F91CF91DF91992787FD909508954E
S1133850FC010590615070400110D8F78095909557
S11338608E0F9F1F0895FC0161507040019001105C
S1133870D8F7809590958E0F9F1F08950F931F93EF
S1133880CF93DF93FB01238121FD03C08FEF9FEFD3
S11338902CC022FF16C046815781248135814217EE
S11338A0530744F4A081B1819D012F5F3F4F3183C1
S11338B020838C93268137812F5F3F4F3783268364
S11338C014C08B01EC01FB010084F185E02D099506
S11338D0892BE1F6D80116968D919C911797019644
S11338E017969C938E931697CE01DF91CF911F91DB
S11338F00F910895A0E0B0E0E0E8FCE10C94F91920
S1133900AE014B5F5F4FFA0161917191AF018091FC
S11339105C0290915D020E944912E2E00C94151A37
S1133920FA01AA27283051F1203181F1E8946F93EC
S11339306E7F6E5F7F4F8F4F9F4FAF4FB1E03ED092
S1133940B4E03CD0670F781F891F9A1FA11D680F30
S1133950791F8A1F911DA11D6A0F711D811D911D63
S1133960A11D20D009F468943F912AE0269F1124D8
S11339703019305D3193DEF6CF010895462F47703C
S1133980405D4193B3E00FD0C9F7F6CF462F4F7097
S1133990405D4A3318F0495D31FD4052419302D0F5
S11339A0A9F7EACFB4E0A69597958795779567959B
S11339B0BA95C9F700976105710508959B01AC019B
S11339C00A2E06945795479537952795BA95C9F7C2
S11339D0620F731F841F951FA01D0895F894FFCFD5
S11339E01F0000000200000000C2090000000018CF
S11339F00C041060C0802000006002200053746139
S1133A007475733A20545800546869732054656D72
S1133A10702843293A2025640A004F74686572208F
S1133A2054656D702843293A2025640A0053746153
S10B3A307475733A205258002A
S9030000FC
