S0220000436F6D6D2053797374656D732046696E616C2050726F6A6563742E737265635D
S11300000C940B030C9428030C9428030C942803DD
S11300100C9473090C949C090C94C5090C94EE0976
S11300200C9428030C9454080C947D080C94A60892
S11300300C9421090C94CF080C94F8080C944A09E8
S11300400C94D9070C9402080C942B080C942803E4
S11300500C9428030C9428030C9428030C94280370
S11300600C9428030C9428030C9428030C94280360
S11300700C9428030C9428030C9428030763423639
S1130080B79BD8A71A39685618AEBAAB558C1D3C25
S1130090B7CC5763BD6DEDFD753EF6177231BF00E9
S11300A00000803F08000000BE922449123EABAA23
S11300B0AA2ABECDCCCC4C3E00000080BEABAAAA7E
S11300C0AA3E00000000BF000000803F00000000C6
S11300D000084178D3BB4387D1133D190E3CC3BDFF
S11300E04282AD2B3E68EC8276BED98FE1A93E4CAC
S11300F080EFFFBE01C4FF7F3F00000000006E617F
S11301006E00696E660000407A10F35A00A0724EC9
S113011018090010A5D4E80000E87648170000E4A8
S11301200B54020000CA9A3B000000E1F5050000F0
S113013080969800000040420F000000A086010055
S11301400000102700000000E80300000000640025
S1130150000000000A000000000001000000000090
S11301602C76D888DC674F0823DFC1DFAE59E1B1B4
S1130170B796E5E3E453C63AE651997696E8E6C2C3
S11301808426EB898C9B62ED407C6FFCEFBC9C9FCA
S113019040F2BAA56FA5F490055A2AF75C936B6CEC
S11301A0F9676DC11BFCE0E40D47FEF520E6B500E0
S11301B0D0ED902E0300943577050080841E08004E
S11301C000204E0A000000C80C333333330F986EFE
S11301D012831141EF8D2114893BE65516CFFEE6BB
S11301E0DB18D1844B381BF77C1D901DA4BBE42481
S11301F0203284725E228100C9F124ECA1E53D27FE
S113020016050100000000000000FA000000E000F4
S1130210E00028FE28FE282454FE5448C4C81026B2
S1130220466C92AA44A000A0C0000000384482009A
S1130230008244380028107C102810107C10100014
S11302400A0C00001010101010000606000004082C
S11302501020407C8A92A27C0042FE020042868AE0
S113026092628482A2D28C182848FE08E4A2A2A238
S11302709C3C5292920C808E90A0C06C9292926C94
S11302806092929478006C6C0000006A6C0000101C
S113029028448200282828282800824428104080E6
S11302A08A90604C929E827C7E8888887EFE9292A0
S11302B0926C7C82828244FE82824438FE929292C4
S11302C082FE909090807C8292925EFE101010FECE
S11302D00082FE8200040282FC80FE10284482FE1A
S11302E002020202FE403040FEFE201008FE7C8224
S11302F082827CFE909090607C828A847AFE9098C0
S11303009462629292928C8080FE8080FC0202024F
S1130310FCF8040204F8FC021C02FCC6281028C6DF
S1130320E0100E10E0868A92A2C200FE8282004093
S113033020100804008282FE002040804020020237
S11303400202020080402000042A2A2A1EFE1222F1
S1130350221C1C222222041C222212FE1C2A2A2ACB
S113036018107E908040304A4A4A7CFE1020201E9D
S11303700022BE0200040222BC00FE081422000077
S113038082FE02003E2018201E3E1020201E1C2249
S113039022221C3E28282810102828183E3E10200F
S11303A02010122A2A2A0420FC2202043C020204FD
S11303B03E38040204383C020C023C221408142285
S11303C0300A0A0A3C22262A322200106C820000DB
S11303D000FE000000826C100008101008100000DD
S11303E00000007F8181817F7F8383837F7F878774
S11303F0877F7F8F8F8F7F7F9F9F9F7F7FBFBFBFB1
S11304007F7FFFFFFF7F2040FF40206215171565A7
S113041000FBFB00000000000000C0FF0300E0FF41
S11304200700F0FF0F00F8FF1F0078001E0078009F
S11304301E0078001E0078001E0078001E00780060
S11304401E0078001E0078001E0078001E000000C8
S113045000000000000080FF0300E0FF0700F0FF41
S11304600F00F8FF1F00F83C1F00783C1E00783C8A
S11304701E00783C1E00783C1E00783C1E00783C30
S11304801E00783C1E00783C1E00783C1E00783C20
S11304901E000000000000000000E0FF0300F0FF69
S11304A00700F8FF0F00F8FF1F00783C1E00783C9F
S11304B01E00783C1E00783C1E00783C1E00783CF0
S11304C01E00783C1E00783C1E00783C1E00783CE0
S11304D01E000000000000000000F8FF0300F8FF09
S11304E00F00F8FF1F00F8FF1F0000001E000000AF
S11304F01E0000801F0000F01F0000FF0F00E0FF3F
S11305000700F0FF0000F80F0000F800000078007A
S1130510000078000000F8FF1F00F8FF1F00F0FF44
S11305201F00E0FF1F000000000000000000F8FFB3
S11305301F00F8FF1F00F8FF1F00F8FF1F007800DE
S11305401E00783C1E00783C1E00783C1E00783C5F
S11305501E00783C1E00783C1E00F87E1F00F8FF49
S11305601F00F0FF0F00E0E70300000000000000A0
S11305703800EEFF6C002A8045003A0047FC03FF78
S11305806CFC83FF3900DEFF0B7CD0810BFCD08137
S11305900BC0D0810BFCD0810B7CDEFF0B0082FFF3
S11305A0397002FF6CF83A0047DC2A8045CCEEFF34
S11305B06CCC000038000000000C00001E0C000091
S11305C01E0000001E0000001E0000001E00F8FFB8
S11305D01F00F8FF1F00F8FF1F00F8FF1F000000B6
S11305E01E0000001E0000001E0000001E0000008F
S11305F05E000000400000007C000000400000009D
S1130600400000007C0000003000000010000000EA
S1130610300000007C0011241FBECFEFD8E0DEBF05
S1130620CDBF11E0A0E0B1E0E4E0FBE302C005903F
S11306300D92A234B107D9F722E0A2E4B1E001C0DF
S11306401D92AE35B207E1F70E949F030C94801D02
S11306500C9400008FE00E947706882311F082E05A
S113066008950E94940381E008958FE00E94840617
S1130670882319F420E030E013C080917A0080646C
S113068080937A0080917A0086FDFCCF30917800C7
S113069020917900922F80E0232F30E0282B392BF2
S11306A0C9010895ECE7F0E090818295880F880FE6
S11306B0807C9F73982B90830895582F809100011C
S11306C08830D8F440917E0021E030E0B90102C0C6
S11306D0660F771F8A95E2F7CB0180958423809378
S11306E07E0080917E00052E02C0220F331F0A94E3
S11306F0E2F7822B80937E000DC020917E0081E082
S113070090E0052E02C0880F991F0A94E2F7282B67
S113071020937E005093000180917C005F71807E65
S1130720852B80937C0008958FE180937C00EAE719
S1130730F0E087E0808380818068808308950E9450
S1130740D7070E94C9070E948F1280E090E00895A5
S11307500F931F9385E00E947706882311F082E0AF
S11307607AC00E94D104182F0E94900611501230B2
S113077008F06DC08150823008F069C00E94B50451
S11307808EEA60E00E949A0482EA60E00E949A0481
S113079080EA60E00E949A0400E513ECC801019726
S11307A0F1F780EC60E00E949A048FE260E00E941E
S11307B09A0481E860E00E949A0486E160E00E9465
S11307C09A0482E260E00E949A04C8010197F1F75A
S11307D08FEA60E00E949A0486EA60E00E949A042C
S11307E085EA60E00E949A0480E090E028E833E122
S11307F0F9013197F1F7019643E0883E9407C1F778
S113080083EB60E00E949A0480E460E00E949A0412
S113081083E060E00E942E0483E060E00E9488048C
S11308201092F6011092F8011092F70181E091E024
S113083090935B0280935A0288E10E9467040E94AD
S1130840280A84EA60E00E949A0481E004C085E0FA
S11308500E94670687E01F910F910895FF920F93FE
S11308601F93082FF62E85E00E9484068823A1F0AA
S11308701F2D1F770370802F806B60E00E949A0405
S113088012951F70812F806160E00E949A048F2D61
S11308908F7060E00E949A041F910F91FF90089559
S11308A00F931F93082F162F85E00E948406882338
S11308B059F0812F153108F084E166E0869FB0017C
S11308C01124802F0E9488041F910F9108951F9373
S11308D0182F85E00E9484068823C1F087E00E94D7
S11308E0130582E06AE00E94640582E061EB0E94E5
S11308F06405612F113208F060E282E00E94640511
S113090089EE8A95F1F787E00E9413051F910895F7
S11309100F931F93082F162F85E00E9484068823C7
S113092031F003701F771093F4010093F5011F91C8
S11309300F9108950F931F93082F162F85E00E949F
S11309408406882379F0112319F0113021F402C0B0
S11309502B9801C02B9A86E08A95F1F780E0602FEE
S11309600E9464051F910F910895239A08951F937F
S1130970182F86E00E948406882319F0812F0E9494
S1130980C3041F910895282F85FF04C08BB190E202
S113099089278BB926FF04C08BB190E489278BB9D2
S11309A0089582E00E947706882311F082E008957A
S11309B00E94730580E06DE67BE00E940A0581E0F9
S11309C065E67BE00E940A0582E06DE57BE00E941B
S11309D00A0586E065E77BE00E940A0583E065E599
S11309E07BE00E940A0584E065E57BE00E940A053D
S11309F085E065E57BE00E940A0587E065E57BE02C
S1130A000E940A058FEF8093F90187E00E94130585
S1130A1081E00895E82FF0E0EE0FFF1FEE57FE4F40
S1130A207183608308951F93182F82E00E948406C7
S1130A30882309F447C0912F97708091F901981782
S1130A4009F440C09093F90185B1887F892B85B959
S1130A50933011F1943028F4913051F0923090F4A5
S1130A600CC0953019F19530E0F0963021F50FC0A7
S1130A70E0918401F091850122C0E0918201F0911E
S1130A8083011DC0E0918601F091870118C0E091B7
S1130A908E01F0918F0113C0E0918801F0918901DA
S1130AA00EC0E0918A01F0918B0109C0E0918C01A4
S1130AB0F0918D0104C0E0919001F0919101309783
S1130AC009F009951F9108951F93162F0E9413058D
S1130AD082E00E948406882321F01EBD0DB407FE27
S1130AE0FDCF1F910895259A2698279A209A219A36
S1130AF0229A089587E00E947706882311F082E005
S1130B0008950E945D0681E0809330021092FA01FC
S1130B101092FB011092FD011092FC011092FF0152
S1130B201092FE0110920102109200021092030230
S1130B30109202021092050210920402109207020F
S1130B4010920602109209021092080210920B02EF
S1130B5010920A0210920D0210920C0210920F02CF
S1130B6010920E02109211021092100210921302AF
S1130B7010921202109218021092190210921A0284
S1130B8010921B0210921D0210921E0210921F025C
S1130B90109220021092210210922202109223023B
S1130BA0109225021092240210922702109226021B
S1130BB0109229021092280210922B0210922A02FB
S1130BC0109215021092140210921702109216023B
S1130BD010922F0210922E02109230020895EF927A
S1130BE0FF920F931F93182F062F7A0160E00E9443
S1130BF01B06812F602F0E940606812FB7010E94D9
S1130C0030061F910F91FF90EF900895982F81E087
S1130C1080933002913051F0913018F0923041F4C9
S1130C2003C060931D0204C060931D0260931E0202
S1130C30109230020895982F81E080933002913011
S1130C4051F0913018F0923041F403C06093FA01EE
S1130C5004C06093FA016093FB011092300208957E
S1130C60482F81E080933002CB0121E06139720783
S1130C7010F080E991E0413061F0413018F04230E9
S1130C80C9F40EC0F8949093FD018093FC0178940C
S1130C9011C0F8949093FF018093FE0178940AC0E8
S1130CA0F8949093FD018093FC019093FF0180934D
S1130CB0FE0178941092300208953A9A3B9A3C9A35
S1130CC03D9A3E9A3F9A88B1837088B908958531D8
S1130CD060F4E82FF0E0E152FE4F8081882329F090
S1130CE0808181508083808108958FEF08958531BC
S1130CF010F080E00895E82FF0E0E152FE4F80818B
S1130D008F5F808381500895853110F080E00895CD
S1130D10E82FF0E0E152FE4F8081811181E00895D7
S1130D20DF93CF9300D00F92CDB7DEB781E00E945E
S1130D307706882311F082E011C00E94D10481500B
S1130D40823040F40E94B406CE0101960E94040D44
S1130D5081E004C081E00E94670687E00F900F9055
S1130D600F90CF91DF91089510924802109247029C
S1130D7010924A021092490210924C0210924B02B5
S1130D8010924E0210924D021092500210924F0295
S1130D9080E991E090933402809333029093360279
S1130DA080933502909338028093370290933A02ED
S1130DB08093390290933C0280933B0284E398E051
S1130DC090933E0280933D029093400280933F02B1
S1130DD09093420280934102909344028093430291
S1130DE0909346028093450208950F931F93DF93D7
S1130DF0CF93CDB7DEB729970FB6F894DEBF0FBEF9
S1130E00CDBF8C0188E00E948406882311F491E010
S1130E100DC0CE01019661E040E098010E942207D6
S1130E20982F882319F48F818823E9F3892F299631
S1130E300FB6F894DEBF0FBECDBFCF91DF911F91E7
S1130E400F910895EF92FF920F931F93CF93DF9327
S1130E50EC01F62EE42E890188E00E9484068823A2
S1130E6011F481E026C084E090E00E94C11AFC01E4
S1130E70009711F482E01DC0F982F0FC1E8281E02B
S1130E80E81619F48981846089838981886089835B
S1130E901B830A831D830C83D183C0831382128234
S1130EA081E08093A201CF010E9460071092A20109
S1130EB080E0DF91CF911F910F91FF90EF90089503
S1130EC0CF92DF92EF92FF920F931F93CF93DF9312
S1130ED0EC0180915102882339F4D0935302C093DA
S1130EE052020E945D0D47C0C0905202D09053023E
S1130EF000E010E0EE24FF2437C0A881B981FD0191
S1130F0064817581F60140815181FA018481958162
S1130F109B01281B390B37FF0FC0861B970B95834A
S1130F208483DB82CA82012B29F4D0935302C093B9
S1130F30520221C0F7010CC0F60182819381211570
S1130F40310549F4FD01158214829B838A83F601DD
S1130F50D383C28310C0FD01358324830097B9F382
S1130F600F5F1F4F76016C018091510290E00817CA
S1130F70190718F2ECCF809151028F5F80935102D0
S1130F80DF91CF911F910F91FF90EF90DF90CF9061
S1130F9008950E94ED0C0E94F70A0E94170A0E940D
S1130FA0410D0E94D1040E94900678940895000097
S1130FB008951F920F920FB60F9211242F933F930F
S1130FC04F935F936F937F938F939F93AF93BF934D
S1130FD0EF93FF93E0916201F0916301309709F080
S1130FE00995FF91EF91BF91AF919F918F917F915F
S1130FF06F915F914F913F912F910F900FBE0F9082
S11310001F9018951F920F920FB60F9211242F93D1
S11310103F934F935F936F937F938F939F93AF937C
S1131020BF93EF93FF93E0916401F09165013097D2
S113103009F00995FF91EF91BF91AF919F918F9125
S11310407F916F915F914F913F912F910F900FBEC0
S11310500F901F9018951F920F920FB60F921124A4
S11310602F933F934F935F936F937F938F939F93AC
S1131070AF93BF93EF93FF93E0916601F091670103
S1131080309709F00995FF91EF91BF91AF919F912E
S11310908F917F916F915F914F913F912F910F901D
S11310A00FBE0F901F9018951F920F920FB60F92BC
S11310B011242F933F934F935F936F937F938F9359
S11310C09F93AF93BF93EF93FF93E0915401F091FB
S11310D05501309709F00995FF91EF91BF91AF91B8
S11310E09F918F917F916F915F914F913F912F913C
S11310F00F900FBE0F901F9018951F920F920FB66E
S11311000F9211242F933F934F935F936F937F9389
S11311108F939F93AF93BF93EF93FF93E091560107
S1131120F0915701309709F00995FF91EF91BF9124
S1131130AF919F918F917F916F915F914F913F916B
S11311402F910F900FBE0F901F9018951F920F9222
S11311500FB60F9211242F933F934F935F936F9386
S11311607F938F939F93AF93BF93EF93FF93E091FC
S11311705801F0915901309709F00995FF91EF91C9
S1131180BF91AF919F918F917F916F915F914F919B
S11311903F912F910F900FBE0F901F9018951F92A3
S11311A00F920FB60F9211242F933F934F935F9397
S11311B06F937F938F939F93AF93BF93EF93FF931B
S11311C0E0915C01F0915D01309709F00995FF9180
S11311D0EF91BF91AF919F918F917F916F915F91AB
S11311E04F913F912F910F900FBE0F901F90189524
S11311F01F920F920FB60F9211242F933F934F9388
S11312005F936F937F938F939F93AF93BF93EF936A
S1131210FF93E0915E01F0915F01309709F0099529
S1131220FF91EF91BF91AF919F918F917F916F91BA
S11312305F914F913F912F910F900FBE0F901F9090
S113124018951F920F920FB60F9211242F933F936C
S11312504F935F936F937F938F939F93AF93BF93BA
S1131260EF93FF93E0915A01F0915B01309709F0FD
S11312700995FF91EF91BF91AF919F918F917F91CC
S11312806F915F914F913F912F910F900FBE0F90EF
S11312901F9018951F920F920FB60F9211242F933F
S11312A03F934F935F936F937F938F939F93AF93EA
S11312B0BF93EF93FF93E0916001F0916101309748
S11312C009F00995FF91EF91BF91AF919F918F9193
S11312D07F916F915F914F913F912F910F900FBE2E
S11312E00F901F9018951F920F920FB60F92112412
S11312F02F933F934F935F936F937F938F939F931A
S1131300AF93BF93EF93FF93E0914A01F0914B01A8
S1131310309709F00995FF91EF91BF91AF919F919B
S11313208F917F916F915F914F913F912F910F908A
S11313300FBE0F901F9018951F920F920FB60F9229
S113134011242F933F934F935F936F937F938F93C6
S11313509F93AF93BF93EF93FF93E0914C01F09170
S11313604D01309709F00995FF91EF91BF91AF912D
S11313709F918F917F916F915F914F913F912F91A9
S11313800F900FBE0F901F9018951F920F920FB6DB
S11313900F9211242F933F934F935F936F937F93F7
S11313A08F939F93AF93BF93EF93FF93E0914E017D
S11313B0F0914F01309709F00995FF91EF91BF919A
S11313C0AF919F918F917F916F915F914F913F91D9
S11313D02F910F900FBE0F901F9018951F920F9290
S11313E00FB60F9211242F933F934F935F936F93F4
S11313F07F938F939F93AF93BF93EF93FF93E0916A
S11314005001F0915101309709F00995FF91EF9146
S1131410BF91AF919F918F917F916F915F914F9108
S11314203F912F910F900FBE0F901F90189580E160
S11314300E947706882311F082E00895E2E4F1E047
S11314401192119281E0E238F807D1F781E0089512
S11314500F931F9385E00E9484068823C1F080E4E3
S113146060E00E949A0400E0802F60E00E942E0455
S113147010E080E061E00E949A041F5F1038C9F711
S11314800F5F043089F783E060E00E9488041F91B5
S11314900F910895FF920F931F93CF93DF93F82E2C
S11314A08AE0F816B1F08F1548F0E8E0FE16B9F1BD
S11314B0EF1538F1F7E0FF1651F43BC08DE0F81654
S11314C059F0EBE1FE1689F0FCE0FF1641F001E073
S11314D041C01092F40103C01092F4013AC080910B
S11314E0F50181508093F50134C00E94280A14C08C
S11314F080E061E00E949A048091F4018F5F809300
S1131500F4018091F40187FFF3CF1092F4018091EC
S1131510F50181508093F50100E011E01CC0809139
S1131520F4018823B1F08091F40186508093F40192
S113153010C081E00E943F0C64EF71E080E090E015
S11315404DE750E024E630E00E944B0C81E00E941D
S1131550A60B00E010E08091F5016091F4010E9477
S11315602E04002351F185E0F89EC0011124EC0102
S1131570CD59DE4F8C0108591E4FFE01849161E064
S11315800E949A042196C017D107B9F780E061E060
S11315900E949A048091F4018A5F8093F4018091FF
S11315A0F40190E08C3791053CF01092F4018091A5
S11315B0F50181508093F50111E08091F50183706C
S11315C08093F501113059F48091F601813039F49A
S11315D0E091F701F091F801309709F0099580E066
S11315E090E0DF91CF911F910F91FF900895F894AF
S11315F00E94520B81E00E94FF0A81E0089581302D
S113160049F0F894813020F18230B1F0833009F050
S113161045C017C02C9A80E8809361001092610045
S113162080E090E00000019688329105D9F710928D
S1131630680010926B00089580E88093610083E055
S113164004C080E88093610088E08093610028C032
S113165080E090E0000001962DE680369207D1F7F5
S11316602C9880E090E0000001962DE680369207E9
S1131670D1F710927A008FEF809364008091680014
S113168081608093680080916B00846080936B001C
S1131690789483B7816083BF88950895823008F079
S11316A078940895249A2C9A089583E58CBD81E05A
S11316B08DBD8DE08A95F1F7089583E58CBD1DBC41
S11316C084EF91E00197F1F708958FE78CBD1DBC7D
S11316D084EF91E00197F1F7089583E58CBD81E0F3
S11316E08DBD8DE08A95F1F7089583E58CBD81E089
S11316F08DBD84EF91E00197F1F708958AE00E948F
S11317006706882329F481E00E94A10C10929301BA
S1131710089589E00E9467068823B9F480919201B4
S1131720882311F00E94E70C82E00E94A10C8091B2
S1131730A0019091A101009731F00E94591B1092D1
S1131740A1011092A001109292010895813029F014
S1131750823029F40E94890B08950E947E0B08951B
S11317600F931F93CF93DF9380E291E00E94C11AFD
S11317709C019093A1018093A001892B11F480E036
S113178039C08901C0E0D0E0BE0180E090E00E9451
S11317906D1720E030E040EA51E40E94C51627EFBF
S11317A035E740E05FE30E9438189B01AC0160E03C
S11317B070E080E291E40E94A5189B01AC01CA018B
S11317C0B9012DEC3CEC42E851E40E9438180E9427
S11317D0FB172AE030E040E050E00E942A1AF801AA
S11317E061937193819391938F012196C834D105AC
S11317F059F681E0DF91CF911F910F9108958AE00E
S11318000E947706882311F082E0089510929D01CA
S113181010929C0181E00E94BD0C81E080939301B1
S113182008951F9389E00E947706882311F082E0CF
S113183024C08BE00E9484068823D9F40E94B00B54
S1131840182F813011F086E018C010929401109284
S1131850950110929601109297018DE065EA7DE062
S11318600E94700D82E00E94BD0C1093920181E0F1
S113187004C089E00E94670687E01F9108958130C3
S113188021F0823029F084E008950E94FF0B08952E
S11318900E94110C08956F927F928F929F92AF9243
S11318A0BF92CF92DF92EF92FF920F931F93CF9349
S11318B0DF933B014C015A01E9018AE00E9484064E
S11318C0882381F1209741F19501442737FD409504
S11318D0542FBE01C536D10510F064E670E080E0F7
S11318E090E00E942A1A24E630E040E050E00E9492
S11318F04E1A79018A01C401B3010E94A80DC701DF
S11319000E94F50660E070E080E090E00E94A80D7F
S1131910C5018E199F0904C0A114B10419F0C501B1
S11319200E94F506DF91CF911F910F91FF90EF90E8
S1131930DF90CF90BF90AF909F908F907F906F90EB
S11319400895823029F4809181008E7F80938100F4
S113195080919201813031F480919301813011F4AE
S11319600000089580919201813021F080919301CB
S1131970813011F45F9857980895982F80919201BF
S1131980882331F480919301882311F4579A5F9846
S1131990809192018823D1F49230C1F41092800096
S11319A010928100809181008860809381008091F1
S11319B081008160809381001092850010928400E0
S11319C081E08093890080E9809388000895EFE6A0
S11319D0F0E080818D7F80830895CF93DF93C0E012
S11319E0D0E08C2F60E00E94FC0C2196C531D1051B
S11319F0C1F7DF91CF910895853128F4E82FF0E005
S1131A00E152FE4F608308951F93CF93DF93EC015F
S1131A10009799F181E00E948406882351F187E0C0
S1131A200E94130518EC812F8A95F1F782E06AE091
S1131A300E94640582E064EB0E946405812F8A950C
S1131A40F1F782E060E00E94950D8883812F8A95EA
S1131A50F1F782E060E00E94950D89831A95F1F711
S1131A6082E060E00E94950D8A8387E00E9413055E
S1131A7004C0188219828DE28A83DF91CF911F916D
S1131A80089588E00E947706882311F082E0089583
S1131A901092510210925302109252021092A2011B
S1131AA01092A30180E16DE07EE00E94840D0E940B
S1131AB0610D0E946A0D81E0089581E08093A30185
S1131AC0089584B5826084BD85B5846085BD8EE447
S1131AD087BD0895EEE6F0E08081826080830895FA
S1131AE0E82F803268F48051833050F0F0E0EE0F3C
S1131AF0FF1FEE5BFE4F208131817183608302C042
S1131B0020E030E0C9010895803218F020E030E090
S1131B100AC0E82FF0E0EE0FFF1FEE5BFE4F2081BE
S1131B20318171836083C90108951F93162F0E9428
S1131B30130582E00E948406882329F01EBD0DB49B
S1131B4007FEFDCF8EB51F9108950E94CC0D089518
S1131B50EF92FF920F931F937B018C018AE00E9406
S1131B6084068823A1F080919301882381F0D80111
S1131B70C701880F991FAA1FBB1F90939F018093D1
S1131B809E01E114F1040105110509F45F981F9108
S1131B900F91FF90EF900895809194019091950199
S1131BA0A0919601B09197012091980130919901EB
S1131BB040919A0150919B01280F391F4A1F5B1FC6
S1131BC0209394013093950140939601509397018B
S1131BD08091940190919501A0919601B091970103
S1131BE08851964FA040B040BCF08BB180588BB95F
S1131BF08091940190919501A0919601B0919701E3
S1131C008851964FA040B0408093940190939501E1
S1131C10A0939601B093970108950E94140E0E9418
S1131C20540E0E942D0E089588E00E948406882395
S1131C3011F484E008958091A301882311F483E0D2
S1131C4008958091A201882311F082E008950E94F2
S1131C50C6108130E1F380E00895809193018130D2
S1131C6011F580919C0190919D0120919E013091EC
S1131C709F01280F391F30939D0120939C0180916F
S1131C809C0190919D01885E93406CF08BB18058CB
S1131C908BB980919C0190919D01885E93409093B3
S1131CA09D0180939C01089587E00E948406882307
S1131CB009F4AAC08091040290910502892B09F1CC
S1131CC0809128029091290220910402309105020A
S1131CD0820F931F909329028093280280912802F7
S1131CE090912902885E9340A4F0809128029091FB
S1131CF02902885E9340909329028093280241E050
S1131D0009C08091FC019091FD01909301028093A0
S1131D10000240E08091060290910702892B09F1AC
S1131D2080912A0290912B022091060230910702A1
S1131D30820F931F90932B0280932A0280912A0290
S1131D4090912B02885E9340A4F080912A02909196
S1131D502B02885E934090932B0280932A0261E0C9
S1131D6009C08091FE019091FF019093030280933A
S1131D70020260E0842F0E94050F8091240290915A
S1131D8025022091000230910102280F391F30935F
S1131D902502209324028091240290912502885EDA
S1131DA0934014F440E00BC08091240290912502EA
S1131DB0885E9340909325028093240241E08091B1
S1131DC02602909127022091020230910302280FEB
S1131DD0391F309327022093260280912602909186
S1131DE02702885E934014F460E00BC080912602C1
S1131DF090912702885E9340909327028093260255
S1131E0061E0842F0E944A0F08958823F1F0209105
S1131E10FC013091FD018091000290910102281B88
S1131E20390B1216130634F48091000290910102CA
S1131E30019607C0232B49F0809100029091010282
S1131E4001979093010280930002662311F120917F
S1131E50FE013091FF018091020290910302281B40
S1131E60390B1216130654F4809102029091030266
S1131E70019690930302809302020895232B49F064
S1131E808091020290910302019790930302809340
S1131E90020208950F931F93182F062F809130028A
S1131EA0882309F0E7C080911802882309F05AC0FA
S1131EB08091000290910102892BE9F48091A401A0
S1131EC0837E8093A4011092210280912C028823A6
S1131ED009F45DC060911A0280E00E94A110E091B3
S1131EE02E02F0912F02309709F451C081E08083D3
S1131EF010922C024CC08091FA01813041F48091FF
S1131F000C0290910D02019711F411E002C011230B
S1131F10F1F1E0911F02F0E0E15FFE4F9091A40126
S1131F20937E8081892B8093A40180911D02882354
S1131F3021F480911F028F5F03C080911F028150A2
S1131F4080931F0280911F02837080931F0281E09F
S1131F50809321028091FA018130C9F480E00E94CB
S1131F604D1015C09091A401937E9093A401E0912B
S1131F701F02F0E0E15FFE4F8081892B8093A40172
S1131F8082E080932102109201021092000280915B
S1131F901902882309F059C080910202909103022A
S1131FA0892BE9F48091A4018F718093A40110928C
S1131FB0220280912D02882309F45CC060911B02E7
S1131FC081E00E94A110E0912E02F0912F0230973F
S1131FD009F450C081E0818310922D024BC080919E
S1131FE0FB01813041F480910E0290910F02019720
S1131FF011F401E002C00023E9F1E0912002F0E0D5
S1132000ED5EFE4F9091A4019F718081892B809396
S1132010A40180911E02882321F4809120028F5F05
S113202003C080912002815080932002809120027D
S113203083708093200281E0809322028091FB01CF
S11320408130C1F40E944D1015C09091A4019F717C
S11320509093A401E0912002F0E0ED5EFE4F8081B8
S1132060892B8093A40182E08093220210920302C0
S11320701092020280912302882331F484EA91E0D1
S1132080612F402F0E94341188B183709091A40174
S1132090892B88B91F910F910895882321F08130ED
S11320A009F04EC027C080910C0290910D02892B3B
S11320B049F080910C0290910D02019790930D02CA
S11320C080930C0280912C028823D1F520910C027C
S11320D030910D0280911002909111022817390756
S11320E079F580E060E070E00E94300681E0809342
S11320F02C02089580910E0290910F02892B49F0D1
S113210080910E0290910F02019790930F02809399
S11321100E0280912D02882399F420910E023091B1
S11321200F0280911202909113022817390741F48B
S113213081E060E070E00E94300681E080932D022F
S113214008950F931F93182F062F662349F460E018
S113215070E00E943006812F60E070E00E94CC1194
S113216081E080933002113051F0113018F01230B8
S113217041F403C00093180204C0009318020093B2
S11321801902109230021F910F910895FF920F933C
S11321901F93CF93DF9380915102882309F459C090
S11321A00091520210915302F801C081D1818C81B7
S11321B09D8101979D838C83181619060CF449C0E0
S11321C0898180FF05C08E81882311F481E08E838C
S11321D0898181FF03C0EF81F885099580915102BF
S11321E08230A8F0F8018281938190935302809306
S11321F0520213821282E0910000F0910100848166
S11322009581181619063CF0FF24F39405C010922A
S1132210530210925202FF24809151028150809304
S1132220510280915102882311F40E943111898155
S113223082FF08C08A819B819D838C83C8010E9490
S1132240600708C0C8010E94591B89818F7E898359
S113225001C0FF248F2DDF91CF911F910F91FF902B
S113226008951092A3010895FC0180912102823007
S113227069F48091A80191E089278093A8018823BB
S113228009F03EC08081837E80833AC08091000241
S113229090910102C397A4F56623D1F02091000226
S11322A03091010280E690E0BC01269FC001279F87
S11322B0900D369F900D1124880F892F881F990B3C
S11322C0909315028093140281E08093A60118C0B4
S11322D08091A6018823A1F08091140290911502A7
S11322E001979093150280931402809114029091A7
S11322F01502892B29F48081837E80831092A601A4
S113230080912202823069F48091A70191E08927AB
S11323108093A701882309F03EC080818F71808358
S113232008958091020290910302C397A4F5442377
S1132330D1F0209102023091030280E690E0AC01DA
S1132340249FC001259F900D349F900D1124880F68
S1132350892F881F990B909317028093160281E0AE
S11323608093A50108958091A5018823A1F080910F
S11323701602909117020197909317028093160208
S11323808091160290911702892B29F480818F7114
S113239080831092A5010895982F81E080933002E4
S11323A0913071F0913018F0923071F405C070934F
S11323B00D0260930C0208C070930D0260930C022E
S11323C070930F0260930E0210923002089581E020
S11323D00E94520384E00C945D030F931F93CF93E8
S11323E0DF93C5ECD1E08E018EE190E00E94F5060A
S11323F00E9435039093DE018093DD01BC0180E0EF
S113240090E00E946D1720E030E040EA5BE30E9418
S113241038186093C1017093C2018093C3019093F3
S1132420C40120E030E040E05FE30E94581620E061
S113243030E048EC52E40E9438180E943717709339
S1132440C0016093BF01F801619371938F01F1E0C2
S1132450073D1F0749F680E090E029913991820FEA
S1132460931F21E0C73DD207C1F76AE070E00E94E4
S11324703A1A7093C0016093BF01DF91CF911F910D
S11324800F9108959093CD008093CC0088E18093C0
S1132490C9008CE08093CA000895CF93C82F80911F
S11324A0BC0181110CC024EF31E041E061E083EB19
S11324B091E00E94220781E08093BC010FC08091CB
S11324C0B901882359F080E40E94B7048091C800C0
S11324D085FFFCCFC093CE001092B901CF9108952F
S11324E08091B20181110CC024EF31E041E061E040
S11324F089EA91E00E94220781E08093B2010EC034
S11325008091AF01882351F080E40E94B704809148
S1132510C80087FFFCCF8091CE00089508950E94E3
S1132520A8030E947A050E942A030E94E71181E809
S113253090E00E94421246E950E060E082E00E948E
S1132540EF050DE111E0CFE2D1E00E94ED118091A1
S1132550BF010E944D120E94701290E09093DC0122
S11325608093DB0160E083E00E9450048091C0010D
S11325708F938091BF018F931F930F930E940C1D23
S113258060E082E00E9450048091DC018F9380918E
S1132590DB018F93DF93CF930E940C1D82E390E0C5
S11325A00E94F5068DB79EB708960FB6F8949EBFA5
S11325B00FBE8DBFCACFA0E1B0E0E1EEF2E10C9412
S11325C07B1A7C011B016A01FC011782168283813C
S11325D081FF44C39E012F5F3F4F3901F70193816F
S11325E0F10193FD859193FF81911F01882309F4E3
S11325F031C3853239F493FD859193FF81911F0195
S1132600853239F4B70190E00E94D01C560165016F
S1132610E5CF10E0512C912CFFE1F915D8F08B3265
S113262079F038F4803279F08332A1F4F92DF06135
S11326302EC08D3261F0803369F4292D21602DC0C4
S1132640392D3260932E892D8460982E2AC0E92D6D
S1132650E86015C097FC2DC020ED280F2A3088F4BF
S113266096FE06C03AE0139F200D1124122F19C0C4
S11326708AE0589E200D1124522EE92DE0629E2EF0
S113268010C08E3231F496FCE5C2F92DF0649F2E11
S113269008C08C3621F4292D2068922E02C0883679
S11326A041F4F10193FD859193FF81911F01811103
S11326B0B3CF9BEB980F933020F4992D9061805EFB
S11326C007C09BE9980F933008F066C1992D9F7E4F
S11326D096FF16E09F73992E853619F49064992E0F
S11326E008C0863621F4392F3068932E02C01111A8
S11326F0115097FE07C01C3350F444244394410EF8
S113270027E00BC0183038F027E017E005C027E0B9
S11327109CE3492E02C0212F412C560184E0A80ECF
S1132720B11CF6016081718182819381042DA30122
S11327300E94E21B6C01F981FC87F0FF02C0F3FFE9
S113274006C091FC06C092FE06C000E205C00DE280
S113275003C00BE201C000E08C858C7019F00111FC
S11327605AC29BC297FE10C04C0CFC85F4FF04C0F7
S11327708A81813309F44A94141474F528E02415E9
S113278078F588E0482E2CC096FC2AC0812F90E072
S11327908C159D059CF03CEFC3163FEFD30674F0F7
S11327A0892D8068982E0AC0E2E0F0E0EC0FFD1F4E
S11327B0E10FF11D8081803319F411501111F4CF10
S11327C097FE0EC044244394410E812F90E0C81616
S11327D0D9062CF41C1904C04424439401C010E00D
S11327E097FE06C01C141D0434F4C601019605C0EE
S11327F085E090E002C081E090E001110196112390
S113280031F0212F30E02F5F3F4F820F931F252D92
S113281030E08217930714F4581A01C0512C892D03
S1132820897049F4552039F0B70180E290E00E94A4
S1132830D01C5A94F7CF002329F0B701802F90E0E1
S11328400E94D01C93FC09C0552039F0B70180E3E5
S113285090E00E94D01C5A94F7CF97FE4CC04601DA
S1132860D7FE02C0812C912CC60188199909F30165
S1132870E80FF91FFE87ED87960124193109388B7B
S11328802F87012F10E01195019511093FEF831651
S1132890930629F4B7018EE290E00E94D01CC8147C
S11328A0D9044CF08F8598898815990524F4ED8511
S11328B0FE85818101C080E3F1E08F1A91082D85A6
S11328C03E852F5F3F4F3E872D87801691062CF063
S11328D0B70190E00E94D01CD9CFC814D90441F4A8
S11328E09A81963320F4953319F43C8534FF81E3BF
S11328F0B70190E04EC08A81813319F09C859F7E98
S11329009C87B70190E00E94D01C111105C094FC73
S113291018C085E690E017C0B7018EE290E00E94EF
S1132920D01C1E5F82E001E0080FF301E80FF11DE7
S11329308081B70190E00E94D01C802F0113F3CF57
S1132940E6CF85E490E0B7010E94D01CD7FC06C016
S1132950C114D10441F4EC85E4FF05C0D194C194C1
S1132960D1088DE201C08BE2B70190E00E94D01C37
S113297080E32AE0C216D1042CF08F5FFAE0CF1A6C
S1132980D108F7CFB70190E00E94D01CB701C6016F
S1132990C0960E94D01C54C1833631F0833779F03D
S11329A0833509F056C020C0560132E0A30EB11C95
S11329B0F6018081898301E010E0630112C05601B1
S11329C0F2E0AF0EB11CF601C080D18096FE03C0C8
S11329D0612F70E002C06FEF7FEFC6010E94C51C3B
S11329E08C01F92DFF7714C0560122E0A20EB11C10
S11329F0F601C080D18096FE03C0612F70E002C052
S1132A006FEF7FEFC6010E94BA1C8C01F92DF068AC
S1132A109F2EF3FD1AC0852D90E008171907A8F41E
S1132A20B70180E290E00E94D01C5A94F4CFF601E2
S1132A3097FC859197FE81916F01B70190E00E9408
S1132A40D01C51105A94015011090115110579F740
S1132A50F7C0843611F0893661F5560197FE09C036
S1132A6024E0A20EB11CF601608171818281938100
S1132A700AC0F2E0AF0EB11CF60160817181072E2D
S1132A80000C880B990BF92DFF769F2E97FF09C038
S1132A9090958095709561957F4F8F4F9F4FF0680B
S1132AA09F2E2AE030E0A3010E94221DC82EC618E2
S1132AB03FC0092D853721F40F7E2AE030E01DC088
S1132AC0097F8F3691F018F4883559F0C3C08037E8
S1132AD019F0883711F0BEC0006104FF09C004601A
S1132AE007C094FE08C0066006C028E030E005C0B8
S1132AF020E130E002C020E132E0560107FF09C0C6
S1132B0084E0A80EB11CF6016081718182819381F9
S1132B1008C0F2E0AF0EB11CF6016081718180E063
S1132B2090E0A3010E94221DC82EC6180F77902E94
S1132B3096FE0BC0092D0E7FC11650F494FE0AC0F8
S1132B4092FC08C0092D0E7E05C0DC2C092D03C0A3
S1132B50DC2C01C0D12E04FF0DC0FE01EC0DF11DD3
S1132B608081803311F4097E09C002FF06C0D3942A
S1132B70D39404C0802F867809F0D39403FD11C048
S1132B8000FF06C01C2DD51480F4150D1D190DC0B1
S1132B90D51458F4B70180E290E00E94D01CD3947D
S1132BA0F7CFD51410F45D1801C0512C04FF10C0E8
S1132BB0B70180E390E00E94D01C02FF17C001FD22
S1132BC003C088E790E002C088E590E0B7010CC03C
S1132BD0802F867859F001FF02C08BE201C080E2A9
S1132BE007FD8DE2B70190E00E94D01CC11638F4B5
S1132BF0B70180E390E00E94D01C1150F7CFCA9433
S1132C00F301EC0DF11D8081B70190E00E94D01C0E
S1132C10C110F5CF15C0F4E0F51560F584E0581A3D
S1132C2093FE1FC0011127C02C8523FF2AC00EEF7D
S1132C3010E0392D3071932EF8018491811124C054
S1132C40552009F4E4CCB70180E290E00E94D01C46
S1132C505A94F6CFF7018681978126C08FEF9FEFB4
S1132C6023C0B70180E290E00E94D01C5A94511016
S1132C70F8CFD8CF512CB701802F90E00E94D01C00
S1132C80D3CF02E011E0D5CF91108052B70190E08C
S1132C900E94D01C0F5F1F4FCFCF23E0251510F4E7
S1132CA083E0BDCF512CC0CF6096E2E10C94971A1B
S1132CB05058BB27AA270E9470160C94C1170E9473
S1132CC0B31738F00E94BA1720F039F49F3F19F473
S1132CD026F40C94B0170EF4E095E7FB0C94AA17B5
S1132CE0E92F0E94D21758F3BA17620773078407B3
S1132CF0950720F079F4A6F50C94F4170EF4E095FA
S1132D000B2EBA2FA02D0B01B90190010C01CA01A1
S1132D10A0011124FF27591B99F0593F50F4503E4C
S1132D2068F11A16F040A22F232F342F4427585F3E
S1132D30F3CF469537952795A795F0405395C9F756
S1132D407EF41F16BA0B620B730B840BBAF091500E
S1132D50A1F0FF0FBB1F661F771F881FC2F70EC0AD
S1132D60BA0F621F731F841F48F487957795679580
S1132D70B795F7959E3F08F0B0CF9395880F08F06C
S1132D809927EE0F9795879508950E94D9160C946C
S1132D90C1170E94BA1758F00E94B31740F029F4E3
S1132DA05F3F29F00C94AA1751110C94F5170C9459
S1132DB0B0170E94D21768F39923B1F3552391F306
S1132DC0951B550BBB27AA2762177307840738F096
S1132DD09F5F5F4F220F331F441FAA1FA9F335D0F3
S1132DE00E2E3AF0E0E832D091505040E695001CA7
S1132DF0CAF72BD0FE2F29D0660F771F881FBB1F61
S1132E00261737074807AB07B0E809F0BB0B802D3E
S1132E10BF01FF2793585F4F3AF09E3F510578F06A
S1132E200C94AA170C94F5175F3FE4F3983ED4F37F
S1132E30869577956795B795F7959F5FC9F7880F3E
S1132E40911D9695879597F90895E1E0660F771F90
S1132E50881FBB1F621773078407BA0720F0621B21
S1132E60730B840BBA0BEE1F88F7E09508950E944C
S1132E703E176894B1110C94F51708950E94DA175F
S1132E8088F09F5798F0B92F9927B751B0F0E1F027
S1132E90660F771F881F991F1AF0BA95C9F714C0D7
S1132EA0B13091F00E94F417B1E008950C94F41736
S1132EB0672F782F8827B85F39F0B93FCCF3869510
S1132EC077956795B395D9F73EF49095809570956D
S1132ED061957F4F8F4F9F4F0895E89409C097FBEA
S1132EE03EF490958095709561957F4F8F4F9F4FDD
S1132EF09923A9F0F92F96E9BB279395F695879521
S1132F0077956795B795F111F8CFFAF4BB0F11F4E3
S1132F1060FF1BC06F5F7F4F8F4F9F4F16C088238A
S1132F2011F096E911C0772321F09EE8872F762FC0
S1132F3005C0662371F096E8862F70E060E02AF001
S1132F409A95660F771F881FDAF7880F96958795ED
S1132F5097F9089597F99F6780E870E060E0089515
S1132F609FEF80EC089500240A941616170618069D
S1132F700906089500240A94121613061406050679
S1132F800895092E0394000C11F4882352F0BB0F0A
S1132F9040F4BF2B11F460FF04C06F5F7F4F8F4F6D
S1132FA09F4F089557FD9058440F551F59F05F3FA8
S1132FB071F04795880F97FB991F61F09F3F79F057
S1132FC087950895121613061406551FF2CF4695D9
S1132FD0F1DF08C0161617061806991FF1CF86955B
S1132FE07105610508940895E894BB27662777273F
S1132FF0CB0197F908950E94DA17A8F19E57B0F112
S1133000985160F039F1983070F5092E9927660FC0
S1133010771F881F991F0A94D1F71CC0BB27993FBB
S11330204CF4B111B1E0B62B672F782F8827985F45
S1133030B1F708C0869577956795B79508F4B160A0
S11330409395C1F7BB0F30F411F460FF03C06F5FB9
S11330507F4F8F4F3EF490958095709561957F4F8B
S11330608F4F9F4F089568940C94F5170C94F417A0
S11330700E944B180C94C1170E94B31738F00E9499
S1133080BA1720F0952311F00C94AA170C94B017DA
S113309011240C94F5170E94D21770F3959FC1F375
S11330A0950F50E0551F629FF001729FBB27F00DF2
S11330B0B11D639FAA27F00DB11DAA1F649F662747
S11330C0B00DA11D661F829F2227B00DA11D621F96
S11330D0739FB00DA11D621F839FA00D611D221F50
S11330E0749F3327A00D611D231F849F600D211D34
S11330F0822F762F6A2F11249F5750409AF0F1F0B7
S113310088234AF0EE0FFF1FBB1F661F771F881F1F
S113311091505040A9F79E3F510580F00C94AA1796
S11331200C94F5175F3FE4F3983ED4F386957795B6
S11331306795B795F795E7959F5FC1F7FE2B880FC5
S1133140911D9695879597F90895FA01EE0FFF1F43
S1133150309621053105A1F16115710561F48038BE
S1133160BFE39B0749F168949038810561F080388A
S1133170BFEF9B0741F099234AF5FF3FE105310575
S1133180210519F1E8940894E795D901AA2329F4B3
S1133190AB2FBE2FF85FD0F310C0FF5F70F4A6957D
S11331A0E0F7F73950F019F0FF3A38F49F779F931E
S11331B00DD00F9007FC9058089546F00C94B0176A
S11331C060E070E080E89FE308954FE79F775F93A6
S11331D04F933F932F930E94A0192F913F914F91AA
S11331E05F910E9438180C94FD1829F416F00C9481
S11331F0AA170C94F4170C94B0170E94DA17A8F3CA
S11332009638A0F707F80F92E8942BE33AEA48EBD4
S11332105FE70E944E180F920F920F924DB75EB760
S11332200F920E94E819ECE7F0E00E942F194F91E9
S11332305F91EF91FF91E595EE1FFF1F49F0FE5757
S1133240E0684427EE0F441FFA95E1F74195550BCA
S11332500E9462190F9007FE0C9456190895DF938B
S1133260CF931F930F93FF92EF92DF927B018C0118
S1133270689406C0DA2EEF010E944B18FE01E89410
S1133280A5912591359145915591A6F3EF010E94A1
S11332907016FE019701A801DA9469F7DF90EF90A8
S11332A0FF900F911F91CF91DF9108959B01AC0185
S11332B060E070E080E89FE30C94C5160C94AA17B4
S11332C00C941C1A0E94DA17D8F39923C9F3940FAB
S11332D0511DA3F39150504094F059F0882332F0DB
S11332E0660F771F881F91505040C1F79E3F5105CC
S11332F02CF7880F911D9695879597F908955F3F50
S1133300ACF0983E9CF0BB27869577956795B7956A
S113331008F4B1609395C1F7BB0F58F711F460FF3F
S1133320E8CF6F5F7F4F8F4F9F4FE3CF0C94F5171C
S113333016F00C941C1A0C94B01768940C94AA17E9
S11333400E94DA17A8F39923C1F3AEF3DF93CF9366
S11333501F930F93FF92C92FDD2788232AF021970B
S1133360660F771F881FDAF720E030E040E85FEB54
S11333709FE3883920F0803E38F021968F770E94B1
S11333805916E4EAF0E004C00E945916E1EDF0E0B9
S11333900E942F198B01BE01EC01FB2E6F5771099E
S11333A07595771F880B990B0E946F1728E132E7F8
S11333B041E35FE30E944B18AF2D9801AE01FF90EB
S11333C00F911F91CF91DF910E9470160C94C11739
S11333D0FA01DC01AA0FBB1F9B01AC01BF5728F403
S11333E0222733274427507820C0B75190F4AB2FBD
S11333F00024469537952795011CA395D2F3002008
S113340071F0220F331F441FB395DAF30ED00C94DE
S1133410581661307105A0E88A07B94630F49B015B
S1133420AC016627772788279078309621F020838F
S113343031834283538308959F3F31F0915020F4A8
S1133440879577956795B795880F911D969587957C
S113345097F90895DB018F939F930E94701ABF918F
S1133460AF91A29F800D911DA39F900DB29F900DCF
S113347011240895AA1BBB1B51E107C0AA1FBB1F3F
S1133480A617B70710F0A61BB70B881F991F5A95EC
S1133490A9F780959095BC01CD010895A1E21A2E5B
S11334A0AA1BBB1BFD010DC0AA1FBB1FEE1FFF1FE4
S11334B0A217B307E407F50720F0A21BB30BE40B34
S11334C0F50B661F771F881F991F1A9469F760957B
S11334D07095809590959B01AC01BD01CF01089535
S11334E00E94B21AA59F900DB49F900DA49F800DC9
S11334F0911D112408952F923F924F925F926F92E3
S11335007F928F929F92AF92BF92CF92DF92EF926F
S1133510FF920F931F93CF93DF93CDB7DEB7CA1BF0
S1133520DB0B0FB6F894DEBF0FBECDBF09942A881B
S1133530398848885F846E847D848C849B84AA84C3
S1133540B984C884DF80EE80FD800C811B81AA8150
S1133550B981CE0FD11D0FB6F894DEBF0FBECDBF1B
S1133560ED010895A29FB001B39FC001A39F700D08
S1133570811D1124911DB29F700D811D1124911D77
S113358008950F931F93CF93DF938230910510F426
S113359082E090E0E0915602F091570220E030E0A2
S11335A0A0E0B0E0309719F140815181028113818C
S11335B048175907C8F08417950769F4109731F034
S11335C012960C93129713961C9327C000935602DD
S11335D01093570222C02115310519F042175307E1
S11335E018F49A01BD01EF01DF01F801DBCF2115C9
S11335F03105F9F0281B390B2430310580F48A8118
S11336009B816115710521F0FB019383828304C0C2
S11336109093570280935602FE01329644C0FE01F5
S1133620E20FF31F81939193225031093983288348
S11336303AC02091540230915502232B41F4209139
S1133640190130911A0130935502209354022091AC
S11336501701309118012115310541F42DB73EB7FA
S113366040911B0150911C01241B350BE091540225
S1133670F0915502E217F307A0F42E1B3F0B281715
S1133680390778F0AC014E5F5F4F2417350748F0D7
S11336904E0F5F1F509355024093540281939193B0
S11336A002C0E0E0F0E0CF01DF91CF911F910F91D4
S11336B00895CF93DF93009709F481C0FC013297FA
S11336C013821282A0915602B0915702109781F48E
S11336D020813181820F931F209154023091550231
S11336E02817390751F5F0935502E093540267C047
S11336F0ED0120E030E0CE17DF0740F44A815B8122
S11337009E0141155105F1F0EA01F5CFD383C2833F
S113371040815181840F951FC817D90759F48881B6
S11337209981840F951F0296918380838A819B815E
S1133730938382832115310529F4F0935702E09392
S113374056023DC0E901FB83EA8349915991C40FB4
S1133750D51FEC17FD0761F480819181840F951FBB
S11337600296E90199838883828193819B838A836A
S1133770E0E0F0E012968D919C911397009719F078
S1133780FD01DC01F7CF8D919C9111979D012E5F76
S11337903F4F820F931F20915402309155022817F6
S11337A0390769F4309729F410925702109256029F
S11337B002C013821282B0935502A0935402DF9187
S11337C0CF910895283008F027E03327DA01990FC4
S11337D0311D87FD916000966105710539F43260F1
S11337E02E5F3D9330E32A95E1F708959F3F30F033
S11337F080387105610509F03C5F3C5F3D93913071
S113380008F08068911DDF93CF931F930F93FF926D
S1133810EF92192F987F9695E92F96959695E90F33
S1133820FF27E05AFE4F99273327EE24FF24A701F0
S1133830E70105900894079428F4360FE71EF81E54
S1133840491F511D660F771F881F991F0694A1F702
S11338500590079428F4E70EF81E491F561FC11D52
S1133860770F881F991F661F0694A1F70590079488
S113387028F4F80E491F561FC71FD11D880F991F22
S1133880661F771F0694A1F70590079420F4490F4B
S1133890561FC71FD81F990F661F771F881F0694CE
S11338A0A9F784911095177041F0D695C79557954F
S11338B04795F794E7941A95C1F7E6E0F1E0689428
S11338C01590159135916591959105907FE27395C9
S11338D0E118F10A430B560BC90BD009C0F7E10CF0
S11338E0F11E431F561FC91FD01D7EF4703311F4FF
S11338F08A95E6CFE894015030F0080F0AF40027C7
S1133900021708F4202F2395022F7A3328F079E345
S11339107D932A95E9F710C07D932A9589F606943C
S113392097956795379517951794E118F10A430B06
S1133930560BC90BD00998F023957E9173957A3371
S113394008F070E37C932013B8F77E9170617D9347
S113395030F0839571E37D9370E32A95E1F71124A8
S1133960EF90FF900F911F91CF91DF91992787FDE1
S113397090950895FC010590615070400110D8F7AE
S1133980809590958E0F9F1F0895FC0161507040A3
S113399001900110D8F7809590958E0F9F1F089580
S11339A00F931F93CF93DF93FB01238121FD03C06A
S11339B08FEF9FEF2CC022FF16C0468157812481D0
S11339C035814217530744F4A081B1819D012F5FD3
S11339D03F4F318320838C93268137812F5F3F4F64
S11339E03783268314C08B01EC01FB010084F1852D
S11339F0E02D0995892BE1F6D80116968D919C91BD
S1133A001797019617969C938E931697CE01DF9184
S1133A10CF911F910F910895A0E0B0E0E2E1FDE1A4
S1133A200C948B1AAE014B5F5F4FFA016191719157
S1133A30AF0180915A0290915B020E94DB12E2E096
S1133A400C94A71AFA01AA27283051F1203181F1E8
S1133A50E8946F936E7F6E5F7F4F8F4F9F4FAF4F92
S1133A60B1E03ED0B4E03CD0670F781F891F9A1FA5
S1133A70A11D680F791F8A1F911DA11D6A0F711D59
S1133A80811D911DA11D20D009F468943F912AE065
S1133A90269F11243019305D3193DEF6CF0108954D
S1133AA0462F4770405D4193B3E00FD0C9F7F6CF7E
S1133AB0462F4F70405D4A3318F0495D31FD405246
S1133AC0419302D0A9F7EACFB4E0A69597958795DC
S1133AD077956795BA95C9F70097610571050895BB
S1133AE09B01AC010A2E0694579547953795279567
S1133AF0BA95C9F7620F731F841F951FA01D0895FF
S1073B00F894FFCF63
S1133B041F00000002000000004A0A000000001820
S1133B140C041060C0802000005E02200054686918
S1133B24732054656D702843293A2025640A004F94
S1133B34746865722054656D702843293A2025649D
S1053B440A0071
S9030000FC
